{
  "_format": "hh-sol-artifact-1",
  "contractName": "UTCrowdsale",
  "sourceName": "contracts/Utility Token/UTCrowdSale.sol",
  "abi": [
    {
      "inputs": [
        {
          "internalType": "uint256",
          "name": "_rate",
          "type": "uint256"
        },
        {
          "internalType": "address payable",
          "name": "_wallet",
          "type": "address"
        },
        {
          "internalType": "contract IERC20",
          "name": "_token",
          "type": "address"
        },
        {
          "internalType": "uint256",
          "name": "_openingTime",
          "type": "uint256"
        },
        {
          "internalType": "uint256",
          "name": "_privateClosingTime",
          "type": "uint256"
        },
        {
          "components": [
            {
              "internalType": "uint256",
              "name": "devStartTime",
              "type": "uint256"
            },
            {
              "internalType": "uint256",
              "name": "coreTeamStartTime",
              "type": "uint256"
            },
            {
              "internalType": "uint256",
              "name": "reserveStartTime",
              "type": "uint256"
            },
            {
              "internalType": "uint256",
              "name": "advisorStartTime",
              "type": "uint256"
            }
          ],
          "internalType": "struct UTCrowdsale.StartTime",
          "name": "_startTime",
          "type": "tuple"
        },
        {
          "components": [
            {
              "internalType": "uint256",
              "name": "devCliffDuration",
              "type": "uint256"
            },
            {
              "internalType": "uint256",
              "name": "coreTeamCliffDuration",
              "type": "uint256"
            },
            {
              "internalType": "uint256",
              "name": "reserveCliffDuration",
              "type": "uint256"
            },
            {
              "internalType": "uint256",
              "name": "advisorCliffDuration",
              "type": "uint256"
            }
          ],
          "internalType": "struct UTCrowdsale.CliffDuration",
          "name": "_cliffDuration",
          "type": "tuple"
        },
        {
          "components": [
            {
              "internalType": "uint256",
              "name": "devDuration",
              "type": "uint256"
            },
            {
              "internalType": "uint256",
              "name": "coreTeamDuration",
              "type": "uint256"
            },
            {
              "internalType": "uint256",
              "name": "reserveDuration",
              "type": "uint256"
            },
            {
              "internalType": "uint256",
              "name": "advisorDuration",
              "type": "uint256"
            }
          ],
          "internalType": "struct UTCrowdsale.Duration",
          "name": "_duration",
          "type": "tuple"
        },
        {
          "components": [
            {
              "internalType": "address payable",
              "name": "devFund",
              "type": "address"
            },
            {
              "internalType": "address payable",
              "name": "coreTeamFund",
              "type": "address"
            },
            {
              "internalType": "address payable",
              "name": "reserveFund",
              "type": "address"
            },
            {
              "internalType": "address payable",
              "name": "advisorFund",
              "type": "address"
            }
          ],
          "internalType": "struct UTCrowdsale.FundAddress",
          "name": "_fundAddress",
          "type": "tuple"
        }
      ],
      "stateMutability": "nonpayable",
      "type": "constructor"
    },
    {
      "anonymous": false,
      "inputs": [],
      "name": "CrowdsaleFinalized",
      "type": "event"
    },
    {
      "anonymous": false,
      "inputs": [
        {
          "indexed": true,
          "internalType": "address",
          "name": "account",
          "type": "address"
        }
      ],
      "name": "MinterAdded",
      "type": "event"
    },
    {
      "anonymous": false,
      "inputs": [
        {
          "indexed": true,
          "internalType": "address",
          "name": "account",
          "type": "address"
        }
      ],
      "name": "MinterRemoved",
      "type": "event"
    },
    {
      "anonymous": false,
      "inputs": [
        {
          "indexed": false,
          "internalType": "uint256",
          "name": "prevClosingTime",
          "type": "uint256"
        },
        {
          "indexed": false,
          "internalType": "uint256",
          "name": "newClosingTime",
          "type": "uint256"
        }
      ],
      "name": "TimedCrowdsaleExtended",
      "type": "event"
    },
    {
      "anonymous": false,
      "inputs": [
        {
          "indexed": true,
          "internalType": "address",
          "name": "purchaser",
          "type": "address"
        },
        {
          "indexed": true,
          "internalType": "address",
          "name": "beneficiary",
          "type": "address"
        },
        {
          "indexed": false,
          "internalType": "uint256",
          "name": "value",
          "type": "uint256"
        },
        {
          "indexed": false,
          "internalType": "uint256",
          "name": "amount",
          "type": "uint256"
        }
      ],
      "name": "TokensPurchased",
      "type": "event"
    },
    {
      "inputs": [],
      "name": "TokensRaised",
      "outputs": [
        {
          "internalType": "uint256",
          "name": "",
          "type": "uint256"
        }
      ],
      "stateMutability": "view",
      "type": "function"
    },
    {
      "inputs": [],
      "name": "_ERC20Mintable",
      "outputs": [
        {
          "internalType": "contract ERC20Mintable",
          "name": "",
          "type": "address"
        }
      ],
      "stateMutability": "view",
      "type": "function"
    },
    {
      "inputs": [
        {
          "internalType": "address",
          "name": "account",
          "type": "address"
        }
      ],
      "name": "addMinter",
      "outputs": [],
      "stateMutability": "nonpayable",
      "type": "function"
    },
    {
      "inputs": [],
      "name": "advisorPercentage",
      "outputs": [
        {
          "internalType": "uint256",
          "name": "",
          "type": "uint256"
        }
      ],
      "stateMutability": "view",
      "type": "function"
    },
    {
      "inputs": [],
      "name": "advisorTimelock",
      "outputs": [
        {
          "internalType": "contract TokenVesting",
          "name": "",
          "type": "address"
        }
      ],
      "stateMutability": "view",
      "type": "function"
    },
    {
      "inputs": [
        {
          "internalType": "address",
          "name": "account",
          "type": "address"
        }
      ],
      "name": "balanceOf",
      "outputs": [
        {
          "internalType": "uint256",
          "name": "",
          "type": "uint256"
        }
      ],
      "stateMutability": "view",
      "type": "function"
    },
    {
      "inputs": [],
      "name": "begin",
      "outputs": [],
      "stateMutability": "payable",
      "type": "function"
    },
    {
      "inputs": [],
      "name": "begin1",
      "outputs": [],
      "stateMutability": "payable",
      "type": "function"
    },
    {
      "inputs": [
        {
          "internalType": "address",
          "name": "beneficiary",
          "type": "address"
        }
      ],
      "name": "buyTokens",
      "outputs": [],
      "stateMutability": "payable",
      "type": "function"
    },
    {
      "inputs": [],
      "name": "cliffDuration",
      "outputs": [
        {
          "internalType": "uint256",
          "name": "devCliffDuration",
          "type": "uint256"
        },
        {
          "internalType": "uint256",
          "name": "coreTeamCliffDuration",
          "type": "uint256"
        },
        {
          "internalType": "uint256",
          "name": "reserveCliffDuration",
          "type": "uint256"
        },
        {
          "internalType": "uint256",
          "name": "advisorCliffDuration",
          "type": "uint256"
        }
      ],
      "stateMutability": "view",
      "type": "function"
    },
    {
      "inputs": [],
      "name": "closingTime",
      "outputs": [
        {
          "internalType": "uint256",
          "name": "",
          "type": "uint256"
        }
      ],
      "stateMutability": "view",
      "type": "function"
    },
    {
      "inputs": [
        {
          "internalType": "address",
          "name": "",
          "type": "address"
        }
      ],
      "name": "contributions",
      "outputs": [
        {
          "internalType": "uint256",
          "name": "",
          "type": "uint256"
        }
      ],
      "stateMutability": "view",
      "type": "function"
    },
    {
      "inputs": [],
      "name": "coreTeamPercentage",
      "outputs": [
        {
          "internalType": "uint256",
          "name": "",
          "type": "uint256"
        }
      ],
      "stateMutability": "view",
      "type": "function"
    },
    {
      "inputs": [],
      "name": "coreTeamTimelock",
      "outputs": [
        {
          "internalType": "contract TokenVesting",
          "name": "",
          "type": "address"
        }
      ],
      "stateMutability": "view",
      "type": "function"
    },
    {
      "inputs": [],
      "name": "devPercentage",
      "outputs": [
        {
          "internalType": "uint256",
          "name": "",
          "type": "uint256"
        }
      ],
      "stateMutability": "view",
      "type": "function"
    },
    {
      "inputs": [],
      "name": "devTimelock",
      "outputs": [
        {
          "internalType": "contract TokenVesting",
          "name": "",
          "type": "address"
        }
      ],
      "stateMutability": "view",
      "type": "function"
    },
    {
      "inputs": [],
      "name": "duration",
      "outputs": [
        {
          "internalType": "uint256",
          "name": "devDuration",
          "type": "uint256"
        },
        {
          "internalType": "uint256",
          "name": "coreTeamDuration",
          "type": "uint256"
        },
        {
          "internalType": "uint256",
          "name": "reserveDuration",
          "type": "uint256"
        },
        {
          "internalType": "uint256",
          "name": "advisorDuration",
          "type": "uint256"
        }
      ],
      "stateMutability": "view",
      "type": "function"
    },
    {
      "inputs": [],
      "name": "finalize",
      "outputs": [],
      "stateMutability": "nonpayable",
      "type": "function"
    },
    {
      "inputs": [],
      "name": "finalized",
      "outputs": [
        {
          "internalType": "bool",
          "name": "",
          "type": "bool"
        }
      ],
      "stateMutability": "view",
      "type": "function"
    },
    {
      "inputs": [],
      "name": "fundAddress",
      "outputs": [
        {
          "internalType": "address payable",
          "name": "devFund",
          "type": "address"
        },
        {
          "internalType": "address payable",
          "name": "coreTeamFund",
          "type": "address"
        },
        {
          "internalType": "address payable",
          "name": "reserveFund",
          "type": "address"
        },
        {
          "internalType": "address payable",
          "name": "advisorFund",
          "type": "address"
        }
      ],
      "stateMutability": "view",
      "type": "function"
    },
    {
      "inputs": [
        {
          "internalType": "uint256",
          "name": "amount",
          "type": "uint256"
        }
      ],
      "name": "getPrice",
      "outputs": [
        {
          "internalType": "uint256",
          "name": "",
          "type": "uint256"
        }
      ],
      "stateMutability": "view",
      "type": "function"
    },
    {
      "inputs": [
        {
          "internalType": "address",
          "name": "_beneficiary",
          "type": "address"
        }
      ],
      "name": "getUserContribution",
      "outputs": [
        {
          "internalType": "uint256",
          "name": "",
          "type": "uint256"
        }
      ],
      "stateMutability": "view",
      "type": "function"
    },
    {
      "inputs": [],
      "name": "hasClosedPrivate",
      "outputs": [
        {
          "internalType": "bool",
          "name": "",
          "type": "bool"
        }
      ],
      "stateMutability": "view",
      "type": "function"
    },
    {
      "inputs": [],
      "name": "investorHardCap",
      "outputs": [
        {
          "internalType": "uint256",
          "name": "",
          "type": "uint256"
        }
      ],
      "stateMutability": "view",
      "type": "function"
    },
    {
      "inputs": [],
      "name": "investorMinCap",
      "outputs": [
        {
          "internalType": "uint256",
          "name": "",
          "type": "uint256"
        }
      ],
      "stateMutability": "view",
      "type": "function"
    },
    {
      "inputs": [
        {
          "internalType": "address",
          "name": "account",
          "type": "address"
        }
      ],
      "name": "isMinter",
      "outputs": [
        {
          "internalType": "bool",
          "name": "",
          "type": "bool"
        }
      ],
      "stateMutability": "view",
      "type": "function"
    },
    {
      "inputs": [],
      "name": "isOpen",
      "outputs": [
        {
          "internalType": "bool",
          "name": "",
          "type": "bool"
        }
      ],
      "stateMutability": "view",
      "type": "function"
    },
    {
      "inputs": [],
      "name": "isOpenPrivate",
      "outputs": [
        {
          "internalType": "bool",
          "name": "",
          "type": "bool"
        }
      ],
      "stateMutability": "view",
      "type": "function"
    },
    {
      "inputs": [],
      "name": "openingTime",
      "outputs": [
        {
          "internalType": "uint256",
          "name": "",
          "type": "uint256"
        }
      ],
      "stateMutability": "view",
      "type": "function"
    },
    {
      "inputs": [],
      "name": "privateSalePercentage",
      "outputs": [
        {
          "internalType": "uint256",
          "name": "",
          "type": "uint256"
        }
      ],
      "stateMutability": "view",
      "type": "function"
    },
    {
      "inputs": [],
      "name": "privateSaleSupply",
      "outputs": [
        {
          "internalType": "uint256",
          "name": "",
          "type": "uint256"
        }
      ],
      "stateMutability": "view",
      "type": "function"
    },
    {
      "inputs": [],
      "name": "publicSalePercentage",
      "outputs": [
        {
          "internalType": "uint256",
          "name": "",
          "type": "uint256"
        }
      ],
      "stateMutability": "view",
      "type": "function"
    },
    {
      "inputs": [],
      "name": "publicSaleSupply",
      "outputs": [
        {
          "internalType": "uint256",
          "name": "",
          "type": "uint256"
        }
      ],
      "stateMutability": "view",
      "type": "function"
    },
    {
      "inputs": [],
      "name": "rate",
      "outputs": [
        {
          "internalType": "uint256",
          "name": "",
          "type": "uint256"
        }
      ],
      "stateMutability": "view",
      "type": "function"
    },
    {
      "inputs": [],
      "name": "releaseVesting",
      "outputs": [],
      "stateMutability": "nonpayable",
      "type": "function"
    },
    {
      "inputs": [],
      "name": "renounceMinter",
      "outputs": [],
      "stateMutability": "nonpayable",
      "type": "function"
    },
    {
      "inputs": [],
      "name": "reservePercentage",
      "outputs": [
        {
          "internalType": "uint256",
          "name": "",
          "type": "uint256"
        }
      ],
      "stateMutability": "view",
      "type": "function"
    },
    {
      "inputs": [],
      "name": "reserveTimelock",
      "outputs": [
        {
          "internalType": "contract TokenVesting",
          "name": "",
          "type": "address"
        }
      ],
      "stateMutability": "view",
      "type": "function"
    },
    {
      "inputs": [],
      "name": "startTime",
      "outputs": [
        {
          "internalType": "uint256",
          "name": "devStartTime",
          "type": "uint256"
        },
        {
          "internalType": "uint256",
          "name": "coreTeamStartTime",
          "type": "uint256"
        },
        {
          "internalType": "uint256",
          "name": "reserveStartTime",
          "type": "uint256"
        },
        {
          "internalType": "uint256",
          "name": "advisorStartTime",
          "type": "uint256"
        }
      ],
      "stateMutability": "view",
      "type": "function"
    },
    {
      "inputs": [],
      "name": "token",
      "outputs": [
        {
          "internalType": "contract IERC20",
          "name": "",
          "type": "address"
        }
      ],
      "stateMutability": "view",
      "type": "function"
    },
    {
      "inputs": [],
      "name": "tokenTotalSupply",
      "outputs": [
        {
          "internalType": "uint256",
          "name": "",
          "type": "uint256"
        }
      ],
      "stateMutability": "view",
      "type": "function"
    },
    {
      "inputs": [],
      "name": "tokensRaised",
      "outputs": [
        {
          "internalType": "uint256",
          "name": "",
          "type": "uint256"
        }
      ],
      "stateMutability": "view",
      "type": "function"
    },
    {
      "inputs": [],
      "name": "wallet",
      "outputs": [
        {
          "internalType": "address payable",
          "name": "",
          "type": "address"
        }
      ],
      "stateMutability": "view",
      "type": "function"
    },
    {
      "inputs": [],
      "name": "weiRaised",
      "outputs": [
        {
          "internalType": "uint256",
          "name": "",
          "type": "uint256"
        }
      ],
      "stateMutability": "view",
      "type": "function"
    },
    {
      "inputs": [
        {
          "internalType": "address",
          "name": "beneficiary",
          "type": "address"
        }
      ],
      "name": "withdrawTokens",
      "outputs": [],
      "stateMutability": "nonpayable",
      "type": "function"
    }
  ],
  "bytecode": "0x6101406040526000600c556b033b2e3c9fd0803ce8000000600d556a7c13bc4b2c133c56000000600e556aa56fa5b99019a5c8000000600f556014608090815250601460a090815250601960c090815250600f60e090815250600f610100908152506005610120908152503480156200007757600080fd5b506040516200701c3803806200701c83398181016040528101906200009d9190620009f2565b85858a8a8a600160008190555060008311620000f0576040517f08c379a0000000000000000000000000000000000000000000000000000000008152600401620000e79062000de1565b60405180910390fd5b600073ffffffffffffffffffffffffffffffffffffffff168273ffffffffffffffffffffffffffffffffffffffff16141562000163576040517f08c379a00000000000000000000000000000000000000000000000000000000081526004016200015a9062000e25565b60405180910390fd5b600073ffffffffffffffffffffffffffffffffffffffff168173ffffffffffffffffffffffffffffffffffffffff161415620001d6576040517f08c379a0000000000000000000000000000000000000000000000000000000008152600401620001cd9062000dbf565b60405180910390fd5b8260038190555081600260006101000a81548173ffffffffffffffffffffffffffffffffffffffff021916908373ffffffffffffffffffffffffffffffffffffffff16021790555080600160006101000a81548173ffffffffffffffffffffffffffffffffffffffff021916908373ffffffffffffffffffffffffffffffffffffffff16021790555050505042821015620002a8576040517f08c379a00000000000000000000000000000000000000000000000000000000081526004016200029f9062000d59565b60405180910390fd5b818111620002ed576040517f08c379a0000000000000000000000000000000000000000000000000000000008152600401620002e49062000d9d565b60405180910390fd5b816005819055508060068190555050506000600760006101000a81548160ff0219169083151502179055506040516200032690620007a3565b604051809103906000f08015801562000343573d6000803e3d6000fd5b50600960006101000a81548173ffffffffffffffffffffffffffffffffffffffff021916908373ffffffffffffffffffffffffffffffffffffffff160217905550620003a462000398620005bc60201b60201c565b620005c460201b60201c565b83602001516015600101819055508360000151601560000181905550836060015160156003018190555083604001516015600201819055508260200151601d600101819055508260000151601d600001819055508260600151601d600301819055508260400151601d6002018190555081606001516021600301819055508160200151602160010181905550816000015160216000018190555081604001516021600201819055508060600151601060030160006101000a81548173ffffffffffffffffffffffffffffffffffffffff021916908373ffffffffffffffffffffffffffffffffffffffff1602179055508060200151601060010160006101000a81548173ffffffffffffffffffffffffffffffffffffffff021916908373ffffffffffffffffffffffffffffffffffffffff1602179055508060400151601060020160006101000a81548173ffffffffffffffffffffffffffffffffffffffff021916908373ffffffffffffffffffffffffffffffffffffffff1602179055508060000151601060000160006101000a81548173ffffffffffffffffffffffffffffffffffffffff021916908373ffffffffffffffffffffffffffffffffffffffff16021790555086601460006101000a81548173ffffffffffffffffffffffffffffffffffffffff021916908373ffffffffffffffffffffffffffffffffffffffff16021790555050505050505050505062000f6f565b600033905090565b620005df81600a6200062560201b620020691790919060201c565b8073ffffffffffffffffffffffffffffffffffffffff167f6ae172837ea30b801fbfcdd4108aa1d5bf8ff775444fd70256b44e6bf3dfc3f660405160405180910390a250565b620006378282620006d860201b60201c565b156200067a576040517f08c379a0000000000000000000000000000000000000000000000000000000008152600401620006719062000d7b565b60405180910390fd5b60018260000160008373ffffffffffffffffffffffffffffffffffffffff1673ffffffffffffffffffffffffffffffffffffffff16815260200190815260200160002060006101000a81548160ff0219169083151502179055505050565b60008073ffffffffffffffffffffffffffffffffffffffff168273ffffffffffffffffffffffffffffffffffffffff1614156200074c576040517f08c379a0000000000000000000000000000000000000000000000000000000008152600401620007439062000e03565b60405180910390fd5b8260000160008373ffffffffffffffffffffffffffffffffffffffff1673ffffffffffffffffffffffffffffffffffffffff16815260200190815260200160002060009054906101000a900460ff16905092915050565b6107e7806200683583390190565b600081519050620007c28162000f21565b92915050565b600081519050620007d98162000f3b565b92915050565b600060808284031215620007f257600080fd5b620007fe608062000e47565b905060006200081084828501620009db565b60008301525060206200082684828501620009db565b60208301525060406200083c84828501620009db565b60408301525060606200085284828501620009db565b60608301525092915050565b6000608082840312156200087157600080fd5b6200087d608062000e47565b905060006200088f84828501620009db565b6000830152506020620008a584828501620009db565b6020830152506040620008bb84828501620009db565b6040830152506060620008d184828501620009db565b60608301525092915050565b600060808284031215620008f057600080fd5b620008fc608062000e47565b905060006200090e84828501620007b1565b60008301525060206200092484828501620007b1565b60208301525060406200093a84828501620007b1565b60408301525060606200095084828501620007b1565b60608301525092915050565b6000608082840312156200096f57600080fd5b6200097b608062000e47565b905060006200098d84828501620009db565b6000830152506020620009a384828501620009db565b6020830152506040620009b984828501620009db565b6040830152506060620009cf84828501620009db565b60608301525092915050565b600081519050620009ec8162000f55565b92915050565b60008060008060008060008060006102a08a8c03121562000a1257600080fd5b600062000a228c828d01620009db565b995050602062000a358c828d01620007b1565b985050604062000a488c828d01620007c8565b975050606062000a5b8c828d01620009db565b965050608062000a6e8c828d01620009db565b95505060a062000a818c828d016200095c565b94505061012062000a958c828d01620007df565b9350506101a062000aa98c828d016200085e565b92505061022062000abd8c828d01620008dd565b9150509295985092959850929598565b600062000adc60338362000e7b565b91507f54696d656443726f776473616c653a206f70656e696e672074696d652069732060008301527f6265666f72652063757272656e742074696d65000000000000000000000000006020830152604082019050919050565b600062000b44601f8362000e7b565b91507f526f6c65733a206163636f756e7420616c72656164792068617320726f6c65006000830152602082019050919050565b600062000b8660378362000e7b565b91507f54696d656443726f776473616c653a206f70656e696e672074696d652069732060008301527f6e6f74206265666f726520636c6f73696e672074696d650000000000000000006020830152604082019050919050565b600062000bee60248362000e7b565b91507f43726f776473616c653a20746f6b656e20697320746865207a65726f2061646460008301527f72657373000000000000000000000000000000000000000000000000000000006020830152604082019050919050565b600062000c5660148362000e7b565b91507f43726f776473616c653a207261746520697320300000000000000000000000006000830152602082019050919050565b600062000c9860228362000e7b565b91507f526f6c65733a206163636f756e7420697320746865207a65726f20616464726560008301527f73730000000000000000000000000000000000000000000000000000000000006020830152604082019050919050565b600062000d0060258362000e7b565b91507f43726f776473616c653a2077616c6c657420697320746865207a65726f20616460008301527f64726573730000000000000000000000000000000000000000000000000000006020830152604082019050919050565b6000602082019050818103600083015262000d748162000acd565b9050919050565b6000602082019050818103600083015262000d968162000b35565b9050919050565b6000602082019050818103600083015262000db88162000b77565b9050919050565b6000602082019050818103600083015262000dda8162000bdf565b9050919050565b6000602082019050818103600083015262000dfc8162000c47565b9050919050565b6000602082019050818103600083015262000e1e8162000c89565b9050919050565b6000602082019050818103600083015262000e408162000cf1565b9050919050565b6000604051905081810181811067ffffffffffffffff8211171562000e715762000e7062000ef2565b5b8060405250919050565b600082825260208201905092915050565b600062000e998262000ec8565b9050919050565b600062000ead8262000ec8565b9050919050565b600062000ec18262000e8c565b9050919050565b600073ffffffffffffffffffffffffffffffffffffffff82169050919050565b6000819050919050565b7f4e487b7100000000000000000000000000000000000000000000000000000000600052604160045260246000fd5b62000f2c8162000ea0565b811462000f3857600080fd5b50565b62000f468162000eb4565b811462000f5257600080fd5b50565b62000f608162000ee8565b811462000f6c57600080fd5b50565b60805160a05160c05160e051610100516101205161585a62000fdb60003960006118f101526000611724015260008181610e710152611915015260008181611f5d0152612017015260008181610d4e01526117000152600081816119820152611e3a015261585a6000f3fe608060405260043610620002ae5760003560e01c806398650275116200016f578063cbfd14a211620000d3578063ec8ac4d81162000085578063ec8ac4d81462000a09578063ed5db8741462000a29578063f20dc0451462000a59578063f700c8291462000a65578063f7abab9e1462000a95578063fc0c546a1462000ac557620002ae565b8063cbfd14a214620008cf578063d85349f714620008ff578063e096aa651462000932578063e75722301462000962578063e82bef2914620009a6578063ebc2e02314620009d957620002ae565b8063b4f3b453116200012d578063b4f3b453146200079b578063b7a8807c14620007cb578063b8cc263214620007fb578063ba85e3df146200082b578063bb8b2b47146200085b578063c3a43824146200089f57620002ae565b80639865027514620006ad5780639b981a8c14620006c7578063aa271e1a14620006f7578063b25d7f54146200073b578063b3f05b97146200076b57620002ae565b80634bb278f311620002175780636906ef2011620001d55780636906ef2014620005785780636ea6b71b14620005a857806370a0823114620005d857806372167eb2146200061c57806378e97925146200064c578063983b2d56146200067f57620002ae565b80634bb278f3146200049e578063521eb27314620004b85780635960b74f14620004e85780635b0b791f1462000518578063660aab17146200054857620002ae565b8063395afcca1162000271578063395afcca14620003825780634042b66f146200039c57806342e94c9014620003cc57806347535d7b146200041057806349df728c14620004405780634b6753bc146200046e57620002ae565b806302693ef814620002b35780630895818414620002e35780630fb5a6b414620003135780631bce6ff314620003465780632c4e722e1462000352575b600080fd5b348015620002c057600080fd5b50620002cb62000af5565b604051620002da9190620034f3565b60405180910390f35b348015620002f057600080fd5b50620002fb62000afb565b6040516200030a9190620034f3565b60405180910390f35b3480156200032057600080fd5b506200032b62000b01565b6040516200033d949392919062003510565b60405180910390f35b6200035062000b1f565b005b3480156200035f57600080fd5b506200036a62000f29565b604051620003799190620034f3565b60405180910390f35b3480156200038f57600080fd5b506200039a62000f33565b005b348015620003a957600080fd5b50620003b462001575565b604051620003c39190620034f3565b60405180910390f35b348015620003d957600080fd5b50620003f86004803603810190620003f2919062002abe565b6200157f565b604051620004079190620034f3565b60405180910390f35b3480156200041d57600080fd5b506200042862001597565b60405162000437919062003244565b60405180910390f35b3480156200044d57600080fd5b506200046c600480360381019062000466919062002abe565b620015a4565b005b3480156200047b57600080fd5b5062000486620015b2565b604051620004959190620034f3565b60405180910390f35b348015620004ab57600080fd5b50620004b6620015bc565b005b348015620004c557600080fd5b50620004d0620016ae565b604051620004df919062003150565b60405180910390f35b348015620004f557600080fd5b5062000500620016d8565b6040516200050f9190620032d8565b60405180910390f35b3480156200052557600080fd5b5062000530620016fe565b6040516200053f9190620034f3565b60405180910390f35b3480156200055557600080fd5b506200056062001722565b6040516200056f9190620034f3565b60405180910390f35b3480156200058557600080fd5b506200059062001746565b6040516200059f919062003244565b60405180910390f35b348015620005b557600080fd5b50620005c062001752565b604051620005cf9190620034f3565b60405180910390f35b348015620005e557600080fd5b50620006046004803603810190620005fe919062002abe565b6200175c565b604051620006139190620034f3565b60405180910390f35b3480156200062957600080fd5b5062000634620017a5565b60405162000643919062003244565b60405180910390f35b3480156200065957600080fd5b5062000664620017c1565b60405162000676949392919062003510565b60405180910390f35b3480156200068c57600080fd5b50620006ab6004803603810190620006a5919062002abe565b620017df565b005b348015620006ba57600080fd5b50620006c562001843565b005b348015620006d457600080fd5b50620006df62001859565b604051620006ee9190620032d8565b60405180910390f35b3480156200070457600080fd5b506200072360048036038101906200071d919062002abe565b6200187f565b60405162000732919062003244565b60405180910390f35b3480156200074857600080fd5b50620007536200189e565b604051620007629190620034f3565b60405180910390f35b3480156200077857600080fd5b5062000783620018a8565b60405162000792919062003244565b60405180910390f35b348015620007a857600080fd5b50620007b3620018bf565b604051620007c29190620032d8565b60405180910390f35b348015620007d857600080fd5b50620007e3620018e5565b604051620007f29190620034f3565b60405180910390f35b3480156200080857600080fd5b5062000813620018ef565b604051620008229190620034f3565b60405180910390f35b3480156200083857600080fd5b506200084362001913565b604051620008529190620034f3565b60405180910390f35b3480156200086857600080fd5b5062000887600480360381019062000881919062002abe565b62001937565b604051620008969190620034f3565b60405180910390f35b348015620008ac57600080fd5b50620008b762001980565b604051620008c69190620034f3565b60405180910390f35b348015620008dc57600080fd5b50620008e7620019a4565b604051620008f69190620034f3565b60405180910390f35b3480156200090c57600080fd5b5062000917620019aa565b60405162000929949392919062003510565b60405180910390f35b3480156200093f57600080fd5b506200094a620019c8565b604051620009599190620032d8565b60405180910390f35b3480156200096f57600080fd5b506200098e600480360381019062000988919062002b16565b620019ee565b6040516200099d9190620034f3565b60405180910390f35b348015620009b357600080fd5b50620009be62001a0e565b604051620009d094939291906200316d565b60405180910390f35b348015620009e657600080fd5b50620009f162001aac565b60405162000a00919062003261565b60405180910390f35b62000a27600480360381019062000a21919062002abe565b62001ad2565b005b34801562000a3657600080fd5b5062000a4162001bfe565b60405162000a509190620034f3565b60405180910390f35b62000a6362001c0b565b005b34801562000a7257600080fd5b5062000a7d62002015565b60405162000a8c9190620034f3565b60405180910390f35b34801562000aa257600080fd5b5062000aad62002039565b60405162000abc9190620034f3565b60405180910390f35b34801562000ad257600080fd5b5062000add6200203f565b60405162000aec91906200327e565b60405180910390f35b600e5481565b600c5481565b60218060000154908060010154908060020154908060030154905084565b62000b3362000b2d62002116565b6200187f565b62000b75576040517f08c379a000000000000000000000000000000000000000000000000000000000815260040162000b6c906200335b565b60405180910390fd5b601060030160009054906101000a900473ffffffffffffffffffffffffffffffffffffffff16601560030154601d60030154602160030154600160405162000bbd9062002a54565b62000bcd959493929190620031ba565b604051809103906000f08015801562000bea573d6000803e3d6000fd5b50601c60006101000a81548173ffffffffffffffffffffffffffffffffffffffff021916908373ffffffffffffffffffffffffffffffffffffffff160217905550601060010160009054906101000a900473ffffffffffffffffffffffffffffffffffffffff16601560010154601d60010154602160010154600160405162000c739062002a54565b62000c83959493929190620031ba565b604051809103906000f08015801562000ca0573d6000803e3d6000fd5b50601a60006101000a81548173ffffffffffffffffffffffffffffffffffffffff021916908373ffffffffffffffffffffffffffffffffffffffff160217905550601460009054906101000a900473ffffffffffffffffffffffffffffffffffffffff1673ffffffffffffffffffffffffffffffffffffffff166340c10f19601a60009054906101000a900473ffffffffffffffffffffffffffffffffffffffff1662000d8e606462000d7f7f0000000000000000000000000000000000000000000000000000000000000000600d546200211e90919063ffffffff16565b6200213690919063ffffffff16565b6040518363ffffffff1660e01b815260040162000dad92919062003217565b602060405180830381600087803b15801562000dc857600080fd5b505af115801562000ddd573d6000803e3d6000fd5b505050506040513d601f19601f8201168201806040525081019062000e03919062002aea565b50601460009054906101000a900473ffffffffffffffffffffffffffffffffffffffff1673ffffffffffffffffffffffffffffffffffffffff166340c10f19601c60009054906101000a900473ffffffffffffffffffffffffffffffffffffffff1662000eb1606462000ea27f0000000000000000000000000000000000000000000000000000000000000000600d546200211e90919063ffffffff16565b6200213690919063ffffffff16565b6040518363ffffffff1660e01b815260040162000ed092919062003217565b602060405180830381600087803b15801562000eeb57600080fd5b505af115801562000f00573d6000803e3d6000fd5b505050506040513d601f19601f8201168201806040525081019062000f26919062002aea565b50565b6000600354905090565b6000601960009054906101000a900473ffffffffffffffffffffffffffffffffffffffff1673ffffffffffffffffffffffffffffffffffffffff1663b2bcf495601460009054906101000a900473ffffffffffffffffffffffffffffffffffffffff166040518263ffffffff1660e01b815260040162000fb4919062003261565b60206040518083038186803b15801562000fcd57600080fd5b505afa15801562000fe2573d6000803e3d6000fd5b505050506040513d601f19601f8201168201806040525081019062001008919062002b42565b1115620010c357601960009054906101000a900473ffffffffffffffffffffffffffffffffffffffff1673ffffffffffffffffffffffffffffffffffffffff166319165587601460009054906101000a900473ffffffffffffffffffffffffffffffffffffffff166040518263ffffffff1660e01b81526004016200108e919062003261565b600060405180830381600087803b158015620010a957600080fd5b505af1158015620010be573d6000803e3d6000fd5b505050505b6000601a60009054906101000a900473ffffffffffffffffffffffffffffffffffffffff1673ffffffffffffffffffffffffffffffffffffffff1663b2bcf495601460009054906101000a900473ffffffffffffffffffffffffffffffffffffffff166040518263ffffffff1660e01b815260040162001144919062003261565b60206040518083038186803b1580156200115d57600080fd5b505afa15801562001172573d6000803e3d6000fd5b505050506040513d601f19601f8201168201806040525081019062001198919062002b42565b11156200125357601a60009054906101000a900473ffffffffffffffffffffffffffffffffffffffff1673ffffffffffffffffffffffffffffffffffffffff166319165587601460009054906101000a900473ffffffffffffffffffffffffffffffffffffffff166040518263ffffffff1660e01b81526004016200121e919062003261565b600060405180830381600087803b1580156200123957600080fd5b505af11580156200124e573d6000803e3d6000fd5b505050505b6000601b60009054906101000a900473ffffffffffffffffffffffffffffffffffffffff1673ffffffffffffffffffffffffffffffffffffffff1663b2bcf495601460009054906101000a900473ffffffffffffffffffffffffffffffffffffffff166040518263ffffffff1660e01b8152600401620012d4919062003261565b60206040518083038186803b158015620012ed57600080fd5b505afa15801562001302573d6000803e3d6000fd5b505050506040513d601f19601f8201168201806040525081019062001328919062002b42565b1115620013e357601b60009054906101000a900473ffffffffffffffffffffffffffffffffffffffff1673ffffffffffffffffffffffffffffffffffffffff166319165587601460009054906101000a900473ffffffffffffffffffffffffffffffffffffffff166040518263ffffffff1660e01b8152600401620013ae919062003261565b600060405180830381600087803b158015620013c957600080fd5b505af1158015620013de573d6000803e3d6000fd5b505050505b6000601c60009054906101000a900473ffffffffffffffffffffffffffffffffffffffff1673ffffffffffffffffffffffffffffffffffffffff1663b2bcf495601460009054906101000a900473ffffffffffffffffffffffffffffffffffffffff166040518263ffffffff1660e01b815260040162001464919062003261565b60206040518083038186803b1580156200147d57600080fd5b505afa15801562001492573d6000803e3d6000fd5b505050506040513d601f19601f82011682018060405250810190620014b8919062002b42565b11156200157357601c60009054906101000a900473ffffffffffffffffffffffffffffffffffffffff1673ffffffffffffffffffffffffffffffffffffffff166319165587601460009054906101000a900473ffffffffffffffffffffffffffffffffffffffff166040518263ffffffff1660e01b81526004016200153e919062003261565b600060405180830381600087803b1580156200155957600080fd5b505af11580156200156e573d6000803e3d6000fd5b505050505b565b6000600454905090565b600b6020528060005260406000206000915090505481565b6000600554421015905090565b620015af816200214e565b50565b6000600654905090565b600760009054906101000a900460ff16156200160f576040517f08c379a0000000000000000000000000000000000000000000000000000000008152600401620016069062003405565b60405180910390fd5b6200161962001746565b6200165b576040517f08c379a000000000000000000000000000000000000000000000000000000000815260040162001652906200346b565b60405180910390fd5b6001600760006101000a81548160ff021916908315150217905550620016806200230b565b7f9270cc390c096600a1c17c44345a1ba689fafd99d97487b10cfccf86cf73183660405160405180910390a1565b6000600260009054906101000a900473ffffffffffffffffffffffffffffffffffffffff16905090565b601c60009054906101000a900473ffffffffffffffffffffffffffffffffffffffff1681565b7f000000000000000000000000000000000000000000000000000000000000000081565b7f000000000000000000000000000000000000000000000000000000000000000081565b60006006544211905090565b6000600c54905090565b6000600860008373ffffffffffffffffffffffffffffffffffffffff1673ffffffffffffffffffffffffffffffffffffffff168152602001908152602001600020549050919050565b60006005544210158015620017bc57506006544211155b905090565b60158060000154908060010154908060020154908060030154905084565b620017f3620017ed62002116565b6200187f565b62001835576040517f08c379a00000000000000000000000000000000000000000000000000000000081526004016200182c906200335b565b60405180910390fd5b620018408162002331565b50565b620018576200185162002116565b6200238d565b565b601a60009054906101000a900473ffffffffffffffffffffffffffffffffffffffff1681565b60006200189782600a620023e990919063ffffffff16565b9050919050565b655af3107a400081565b6000600760009054906101000a900460ff16905090565b601b60009054906101000a900473ffffffffffffffffffffffffffffffffffffffff1681565b6000600554905090565b7f000000000000000000000000000000000000000000000000000000000000000081565b7f000000000000000000000000000000000000000000000000000000000000000081565b6000600b60008373ffffffffffffffffffffffffffffffffffffffff1673ffffffffffffffffffffffffffffffffffffffff168152602001908152602001600020549050919050565b7f000000000000000000000000000000000000000000000000000000000000000081565b600f5481565b601d8060000154908060010154908060020154908060030154905084565b601960009054906101000a900473ffffffffffffffffffffffffffffffffffffffff1681565b6000620019fa62000f29565b8262001a079190620035cb565b9050919050565b60108060000160009054906101000a900473ffffffffffffffffffffffffffffffffffffffff16908060010160009054906101000a900473ffffffffffffffffffffffffffffffffffffffff16908060020160009054906101000a900473ffffffffffffffffffffffffffffffffffffffff16908060030160009054906101000a900473ffffffffffffffffffffffffffffffffffffffff16905084565b601460009054906101000a900473ffffffffffffffffffffffffffffffffffffffff1681565b6002600054141562001b1b576040517f08c379a000000000000000000000000000000000000000000000000000000000815260040162001b1290620034af565b60405180910390fd5b6002600081905550600034905062001b348282620024b4565b600062001b4182620026f5565b905062001b5a826004546200271590919063ffffffff16565b60048190555080600c600082825462001b7491906200356e565b9250508190555062001b8783826200272d565b600260009054906101000a900473ffffffffffffffffffffffffffffffffffffffff1673ffffffffffffffffffffffffffffffffffffffff166108fc349081150290604051600060405180830381858888f1935050505015801562001bf0573d6000803e3d6000fd5b505050600160008190555050565b6802b5e3af16b188000081565b62001c1f62001c1962002116565b6200187f565b62001c61576040517f08c379a000000000000000000000000000000000000000000000000000000000815260040162001c58906200335b565b60405180910390fd5b601060000160009054906101000a900473ffffffffffffffffffffffffffffffffffffffff16601560000154601d60000154602160000154600160405162001ca99062002a54565b62001cb9959493929190620031ba565b604051809103906000f08015801562001cd6573d6000803e3d6000fd5b50601960006101000a81548173ffffffffffffffffffffffffffffffffffffffff021916908373ffffffffffffffffffffffffffffffffffffffff160217905550601060020160009054906101000a900473ffffffffffffffffffffffffffffffffffffffff16601560020154601d60020154602160020154600160405162001d5f9062002a54565b62001d6f959493929190620031ba565b604051809103906000f08015801562001d8c573d6000803e3d6000fd5b50601b60006101000a81548173ffffffffffffffffffffffffffffffffffffffff021916908373ffffffffffffffffffffffffffffffffffffffff160217905550601460009054906101000a900473ffffffffffffffffffffffffffffffffffffffff1673ffffffffffffffffffffffffffffffffffffffff166340c10f19601960009054906101000a900473ffffffffffffffffffffffffffffffffffffffff1662001e7a606462001e6b7f0000000000000000000000000000000000000000000000000000000000000000600d546200211e90919063ffffffff16565b6200213690919063ffffffff16565b6040518363ffffffff1660e01b815260040162001e9992919062003217565b602060405180830381600087803b15801562001eb457600080fd5b505af115801562001ec9573d6000803e3d6000fd5b505050506040513d601f19601f8201168201806040525081019062001eef919062002aea565b50601460009054906101000a900473ffffffffffffffffffffffffffffffffffffffff1673ffffffffffffffffffffffffffffffffffffffff166340c10f19601b60009054906101000a900473ffffffffffffffffffffffffffffffffffffffff1662001f9d606462001f8e7f0000000000000000000000000000000000000000000000000000000000000000600d546200211e90919063ffffffff16565b6200213690919063ffffffff16565b6040518363ffffffff1660e01b815260040162001fbc92919062003217565b602060405180830381600087803b15801562001fd757600080fd5b505af115801562001fec573d6000803e3d6000fd5b505050506040513d601f19601f8201168201806040525081019062002012919062002aea565b50565b7f000000000000000000000000000000000000000000000000000000000000000081565b600d5481565b6000600160009054906101000a900473ffffffffffffffffffffffffffffffffffffffff16905090565b620020758282620023e9565b15620020b8576040517f08c379a0000000000000000000000000000000000000000000000000000000008152600401620020af90620032f5565b60405180910390fd5b60018260000160008373ffffffffffffffffffffffffffffffffffffffff1673ffffffffffffffffffffffffffffffffffffffff16815260200190815260200160002060006101000a81548160ff0219169083151502179055505050565b600033905090565b600081836200212e919062003603565b905092915050565b60008183620021469190620035cb565b905092915050565b6200215862001746565b6200219a576040517f08c379a0000000000000000000000000000000000000000000000000000000008152600401620021919062003317565b60405180910390fd5b6000600860008373ffffffffffffffffffffffffffffffffffffffff1673ffffffffffffffffffffffffffffffffffffffff1681526020019081526020016000205490506000811162002224576040517f08c379a00000000000000000000000000000000000000000000000000000000081526004016200221b906200339f565b60405180910390fd5b6000600860008473ffffffffffffffffffffffffffffffffffffffff1673ffffffffffffffffffffffffffffffffffffffff16815260200190815260200160002081905550600960009054906101000a900473ffffffffffffffffffffffffffffffffffffffff1673ffffffffffffffffffffffffffffffffffffffff1663beabacc8620022b16200203f565b84846040518463ffffffff1660e01b8152600401620022d3939291906200329b565b600060405180830381600087803b158015620022ee57600080fd5b505af115801562002303573d6000803e3d6000fd5b505050505050565b6200231562001746565b1562002325576107d06003819055505b6200232f620027f6565b565b6200234781600a6200206990919063ffffffff16565b8073ffffffffffffffffffffffffffffffffffffffff167f6ae172837ea30b801fbfcdd4108aa1d5bf8ff775444fd70256b44e6bf3dfc3f660405160405180910390a250565b620023a381600a620027f890919063ffffffff16565b8073ffffffffffffffffffffffffffffffffffffffff167fe94479a9f7e1952cc78f2d6baab678adc1b772d936c6583def489e524cb6669260405160405180910390a250565b60008073ffffffffffffffffffffffffffffffffffffffff168273ffffffffffffffffffffffffffffffffffffffff1614156200245d576040517f08c379a00000000000000000000000000000000000000000000000000000000081526004016200245490620033c1565b60405180910390fd5b8260000160008373ffffffffffffffffffffffffffffffffffffffff1673ffffffffffffffffffffffffffffffffffffffff16815260200190815260200160002060009054906101000a900460ff16905092915050565b620024c08282620028a4565b620024ca62001597565b6200250c576040517f08c379a0000000000000000000000000000000000000000000000000000000008152600401620025039062003427565b60405180910390fd5b6000600b60008473ffffffffffffffffffffffffffffffffffffffff1673ffffffffffffffffffffffffffffffffffffffff16815260200190815260200160002054905060006200256783836200271590919063ffffffff16565b9050655af3107a400081101580156200258957506802b5e3af16b18800008111155b620025cb576040517f08c379a0000000000000000000000000000000000000000000000000000000008152600401620025c290620033e3565b60405180910390fd5b6000620025d884620026f5565b905061138860035414156200264457600e5481600c54620025fa91906200356e565b11156200263e576040517f08c379a0000000000000000000000000000000000000000000000000000000008152600401620026359062003339565b60405180910390fd5b620026aa565b6107d06003541415620026a957600f5481600c546200266491906200356e565b1115620026a8576040517f08c379a00000000000000000000000000000000000000000000000000000000081526004016200269f9062003339565b60405180910390fd5b5b5b81600b60008773ffffffffffffffffffffffffffffffffffffffff1673ffffffffffffffffffffffffffffffffffffffff168152602001908152602001600020819055505050505050565b60006200270e600354836200211e90919063ffffffff16565b9050919050565b600081836200272591906200356e565b905092915050565b6200278181600860008573ffffffffffffffffffffffffffffffffffffffff1673ffffffffffffffffffffffffffffffffffffffff168152602001908152602001600020546200271590919063ffffffff16565b600860008473ffffffffffffffffffffffffffffffffffffffff1673ffffffffffffffffffffffffffffffffffffffff16815260200190815260200160002081905550620027f2600960009054906101000a900473ffffffffffffffffffffffffffffffffffffffff1682620028b4565b5050565b565b620028048282620023e9565b62002846576040517f08c379a00000000000000000000000000000000000000000000000000000000081526004016200283d906200337d565b60405180910390fd5b60008260000160008373ffffffffffffffffffffffffffffffffffffffff1673ffffffffffffffffffffffffffffffffffffffff16815260200190815260200160002060006101000a81548160ff0219169083151502179055505050565b620028b0828262002996565b5050565b620028be6200203f565b73ffffffffffffffffffffffffffffffffffffffff166340c10f1983836040518363ffffffff1660e01b8152600401620028fa92919062003217565b602060405180830381600087803b1580156200291557600080fd5b505af11580156200292a573d6000803e3d6000fd5b505050506040513d601f19601f8201168201806040525081019062002950919062002aea565b62002992576040517f08c379a000000000000000000000000000000000000000000000000000000000815260040162002989906200348d565b60405180910390fd5b5050565b600073ffffffffffffffffffffffffffffffffffffffff168273ffffffffffffffffffffffffffffffffffffffff16141562002a09576040517f08c379a000000000000000000000000000000000000000000000000000000000815260040162002a009062003449565b60405180910390fd5b600081141562002a50576040517f08c379a000000000000000000000000000000000000000000000000000000000815260040162002a4790620034d1565b60405180910390fd5b5050565b612002806200382383390190565b60008135905062002a7381620037d4565b92915050565b60008151905062002a8a81620037ee565b92915050565b60008135905062002aa18162003808565b92915050565b60008151905062002ab88162003808565b92915050565b60006020828403121562002ad157600080fd5b600062002ae18482850162002a62565b91505092915050565b60006020828403121562002afd57600080fd5b600062002b0d8482850162002a79565b91505092915050565b60006020828403121562002b2957600080fd5b600062002b398482850162002a90565b91505092915050565b60006020828403121562002b5557600080fd5b600062002b658482850162002aa7565b91505092915050565b62002b7981620036c2565b82525050565b62002b8a8162003678565b82525050565b62002b9b8162003664565b82525050565b62002bac816200368c565b82525050565b62002bbd81620036d6565b82525050565b62002bce81620036fe565b82525050565b62002bdf8162003726565b82525050565b600062002bf4601f836200355d565b91507f526f6c65733a206163636f756e7420616c72656164792068617320726f6c65006000830152602082019050919050565b600062002c36602f836200355d565b91507f506f737444656c697665727943726f776473616c653a206e6f7420507269766160008301527f746520526f756e6420636c6f73656400000000000000000000000000000000006020830152604082019050919050565b600062002c9e6022836200355d565b91507f457863656564656420746865206e756d626572206f66206d696e7420746f6b6560008301527f6e730000000000000000000000000000000000000000000000000000000000006020830152604082019050919050565b600062002d066030836200355d565b91507f4d696e746572526f6c653a2063616c6c657220646f6573206e6f74206861766560008301527f20746865204d696e74657220726f6c65000000000000000000000000000000006020830152604082019050919050565b600062002d6e6021836200355d565b91507f526f6c65733a206163636f756e7420646f6573206e6f74206861766520726f6c60008301527f65000000000000000000000000000000000000000000000000000000000000006020830152604082019050919050565b600062002dd66038836200355d565b91507f506f737444656c697665727943726f776473616c653a2062656e65666963696160008301527f7279206973206e6f742064756520616e7920746f6b656e7300000000000000006020830152604082019050919050565b600062002e3e6022836200355d565b91507f526f6c65733a206163636f756e7420697320746865207a65726f20616464726560008301527f73730000000000000000000000000000000000000000000000000000000000006020830152604082019050919050565b600062002ea6603b836200355d565b91507f536f206c756f6e67207469656e206e686f20686f6e206d756320746f6920746860008301527f69657520686f6163206c6f6e20686f6e206d756320746f6920646100000000006020830152604082019050919050565b600062002f0e6027836200355d565b91507f46696e616c697a61626c6543726f776473616c653a20616c726561647920666960008301527f6e616c697a6564000000000000000000000000000000000000000000000000006020830152604082019050919050565b600062002f766014836200355d565b91507f43726f7773616c65206973206e6f74206f70656e0000000000000000000000006000830152602082019050919050565b600062002fb8602a836200355d565b91507f43726f776473616c653a2062656e656669636961727920697320746865207a6560008301527f726f2061646472657373000000000000000000000000000000000000000000006020830152604082019050919050565b600062003020602e836200355d565b91507f46696e616c697a61626c6543726f776473616c653a206e6f742050726976617460008301527f6520526f756e6420636c6f7365640000000000000000000000000000000000006020830152604082019050919050565b600062003088601f836200355d565b91507f4d696e74656443726f776473616c653a206d696e74696e67206661696c6564006000830152602082019050919050565b6000620030ca601f836200355d565b91507f5265656e7472616e637947756172643a207265656e7472616e742063616c6c006000830152602082019050919050565b60006200310c6019836200355d565b91507f43726f776473616c653a20776569416d6f756e742069732030000000000000006000830152602082019050919050565b6200314a81620036b8565b82525050565b600060208201905062003167600083018462002b7f565b92915050565b600060808201905062003184600083018762002b7f565b62003193602083018662002b7f565b620031a2604083018562002b7f565b620031b1606083018462002b7f565b95945050505050565b600060a082019050620031d1600083018862002b6e565b620031e060208301876200313f565b620031ef60408301866200313f565b620031fe60608301856200313f565b6200320d608083018462002ba1565b9695505050505050565b60006040820190506200322e600083018562002b90565b6200323d60208301846200313f565b9392505050565b60006020820190506200325b600083018462002ba1565b92915050565b600060208201905062003278600083018462002bb2565b92915050565b600060208201905062003295600083018462002bc3565b92915050565b6000606082019050620032b2600083018662002bc3565b620032c1602083018562002b90565b620032d060408301846200313f565b949350505050565b6000602082019050620032ef600083018462002bd4565b92915050565b60006020820190508181036000830152620033108162002be5565b9050919050565b60006020820190508181036000830152620033328162002c27565b9050919050565b60006020820190508181036000830152620033548162002c8f565b9050919050565b60006020820190508181036000830152620033768162002cf7565b9050919050565b60006020820190508181036000830152620033988162002d5f565b9050919050565b60006020820190508181036000830152620033ba8162002dc7565b9050919050565b60006020820190508181036000830152620033dc8162002e2f565b9050919050565b60006020820190508181036000830152620033fe8162002e97565b9050919050565b60006020820190508181036000830152620034208162002eff565b9050919050565b60006020820190508181036000830152620034428162002f67565b9050919050565b60006020820190508181036000830152620034648162002fa9565b9050919050565b60006020820190508181036000830152620034868162003011565b9050919050565b60006020820190508181036000830152620034a88162003079565b9050919050565b60006020820190508181036000830152620034ca81620030bb565b9050919050565b60006020820190508181036000830152620034ec81620030fd565b9050919050565b60006020820190506200350a60008301846200313f565b92915050565b60006080820190506200352760008301876200313f565b6200353660208301866200313f565b6200354560408301856200313f565b6200355460608301846200313f565b95945050505050565b600082825260208201905092915050565b60006200357b82620036b8565b91506200358883620036b8565b9250827fffffffffffffffffffffffffffffffffffffffffffffffffffffffffffffffff03821115620035c057620035bf62003776565b5b828201905092915050565b6000620035d882620036b8565b9150620035e583620036b8565b925082620035f857620035f7620037a5565b5b828204905092915050565b60006200361082620036b8565b91506200361d83620036b8565b9250817fffffffffffffffffffffffffffffffffffffffffffffffffffffffffffffffff048311821515161562003659576200365862003776565b5b828202905092915050565b6000620036718262003698565b9050919050565b6000620036858262003698565b9050919050565b60008115159050919050565b600073ffffffffffffffffffffffffffffffffffffffff82169050919050565b6000819050919050565b6000620036cf826200374e565b9050919050565b6000620036e382620036ea565b9050919050565b6000620036f78262003698565b9050919050565b60006200370b8262003712565b9050919050565b60006200371f8262003698565b9050919050565b600062003733826200373a565b9050919050565b6000620037478262003698565b9050919050565b60006200375b8262003762565b9050919050565b60006200376f8262003698565b9050919050565b7f4e487b7100000000000000000000000000000000000000000000000000000000600052601160045260246000fd5b7f4e487b7100000000000000000000000000000000000000000000000000000000600052601260045260246000fd5b620037df8162003664565b8114620037eb57600080fd5b50565b620037f9816200368c565b81146200380557600080fd5b50565b6200381381620036b8565b81146200381f57600080fd5b5056fe60806040523480156200001157600080fd5b506040516200200238038062002002833981810160405281019062000037919062000371565b620000576200004b6200024860201b60201c565b6200025060201b60201c565b600073ffffffffffffffffffffffffffffffffffffffff168573ffffffffffffffffffffffffffffffffffffffff161415620000ca576040517f08c379a0000000000000000000000000000000000000000000000000000000008152600401620000c1906200058f565b60405180910390fd5b8183111562000110576040517f08c379a00000000000000000000000000000000000000000000000000000000081526004016200010790620005b1565b60405180910390fd5b6000821162000156576040517f08c379a00000000000000000000000000000000000000000000000000000000081526004016200014d90620005d3565b60405180910390fd5b426200017183866200031460201b62000a1b1790919060201c565b11620001b4576040517f08c379a0000000000000000000000000000000000000000000000000000000008152600401620001ab906200056d565b60405180910390fd5b84600160006101000a81548173ffffffffffffffffffffffffffffffffffffffff021916908373ffffffffffffffffffffffffffffffffffffffff16021790555080600660006101000a81548160ff021916908315150217905550816005819055506200023083856200031460201b62000a1b1790919060201c565b6003819055508360048190555050505050506200072a565b600033905090565b60008060009054906101000a900473ffffffffffffffffffffffffffffffffffffffff169050816000806101000a81548173ffffffffffffffffffffffffffffffffffffffff021916908373ffffffffffffffffffffffffffffffffffffffff1602179055508173ffffffffffffffffffffffffffffffffffffffff168173ffffffffffffffffffffffffffffffffffffffff167f8be0079c531659141344cd1fd0a4f28419497f9722a3daafe3b4186f6b6457e060405160405180910390a35050565b6000818362000324919062000606565b905092915050565b6000815190506200033d81620006dc565b92915050565b6000815190506200035481620006f6565b92915050565b6000815190506200036b8162000710565b92915050565b600080600080600060a086880312156200038a57600080fd5b60006200039a888289016200032c565b9550506020620003ad888289016200035a565b9450506040620003c0888289016200035a565b9350506060620003d3888289016200035a565b9250506080620003e68882890162000343565b9150509295509295909350565b600062000402602f83620005f5565b91507f546f6b656e56657374696e673a2066696e616c2074696d65206973206265666f60008301527f72652063757272656e742074696d6500000000000000000000000000000000006020830152604082019050919050565b60006200046a602d83620005f5565b91507f546f6b656e56657374696e673a2062656e65666963696172792069732074686560008301527f207a65726f2061646472657373000000000000000000000000000000000000006020830152604082019050919050565b6000620004d2602b83620005f5565b91507f546f6b656e56657374696e673a20636c696666206973206c6f6e67657220746860008301527f616e206475726174696f6e0000000000000000000000000000000000000000006020830152604082019050919050565b60006200053a601b83620005f5565b91507f546f6b656e56657374696e673a206475726174696f6e206973203000000000006000830152602082019050919050565b600060208201905081810360008301526200058881620003f3565b9050919050565b60006020820190508181036000830152620005aa816200045b565b9050919050565b60006020820190508181036000830152620005cc81620004c3565b9050919050565b60006020820190508181036000830152620005ee816200052b565b9050919050565b600082825260208201905092915050565b60006200061382620006a3565b91506200062083620006a3565b9250827fffffffffffffffffffffffffffffffffffffffffffffffffffffffffffffffff03821115620006585762000657620006ad565b5b828201905092915050565b6000620006708262000683565b9050919050565b60008115159050919050565b600073ffffffffffffffffffffffffffffffffffffffff82169050919050565b6000819050919050565b7f4e487b7100000000000000000000000000000000000000000000000000000000600052601160045260246000fd5b620006e78162000663565b8114620006f357600080fd5b50565b620007018162000677565b81146200070d57600080fd5b50565b6200071b81620006a3565b81146200072757600080fd5b50565b6118c8806200073a6000396000f3fe608060405234801561001057600080fd5b50600436106100ea5760003560e01c8063872a78101161008c578063b2bcf49511610066578063b2bcf49514610215578063be9a655514610245578063f2fde38b14610263578063fa01dc061461027f576100ea565b8063872a7810146101a95780638da5cb5b146101c75780639852595c146101e5576100ea565b8063198669db116100c8578063198669db1461014757806338af3eed14610165578063715018a61461018357806374a8f1031461018d576100ea565b80630fb5a6b4146100ef57806313d033c01461010d578063191655871461012b575b600080fd5b6100f76102af565b60405161010491906115d8565b60405180910390f35b6101156102b9565b60405161012291906115d8565b60405180910390f35b610145600480360381019061014091906110bf565b6102c3565b005b61014f61044b565b60405161015c91906115d8565b60405180910390f35b61016d610455565b60405161017a9190611457565b60405180910390f35b61018b61047f565b005b6101a760048036038101906101a291906110bf565b610507565b005b6101b16107d7565b6040516101be919061149b565b60405180910390f35b6101cf6107ee565b6040516101dc9190611457565b60405180910390f35b6101ff60048036038101906101fa919061106d565b610817565b60405161020c91906115d8565b60405180910390f35b61022f600480360381019061022a91906110bf565b610860565b60405161023c91906115d8565b60405180910390f35b61024d6108c3565b60405161025a91906115d8565b60405180910390f35b61027d6004803603810190610278919061106d565b6108cd565b005b6102996004803603810190610294919061106d565b6109c5565b6040516102a6919061149b565b60405180910390f35b6000600554905090565b6000600354905090565b60006102ce82610860565b905080600260008282546102e29190611625565b925050819055506000811161032c576040517f08c379a000000000000000000000000000000000000000000000000000000000815260040161032390611518565b60405180910390fd5b61037e81600760008573ffffffffffffffffffffffffffffffffffffffff1673ffffffffffffffffffffffffffffffffffffffff16815260200190815260200160002054610a1b90919063ffffffff16565b600760008473ffffffffffffffffffffffffffffffffffffffff1673ffffffffffffffffffffffffffffffffffffffff1681526020019081526020016000208190555061040e600160009054906101000a900473ffffffffffffffffffffffffffffffffffffffff16828473ffffffffffffffffffffffffffffffffffffffff16610a319092919063ffffffff16565b7fc7798891864187665ac6dd119286e44ec13f014527aeeb2b8eb3fd413df93179828260405161043f929190611472565b60405180910390a15050565b6000600254905090565b6000600160009054906101000a900473ffffffffffffffffffffffffffffffffffffffff16905090565b610487610ab7565b73ffffffffffffffffffffffffffffffffffffffff166104a56107ee565b73ffffffffffffffffffffffffffffffffffffffff16146104fb576040517f08c379a00000000000000000000000000000000000000000000000000000000081526004016104f290611558565b60405180910390fd5b6105056000610abf565b565b61050f610ab7565b73ffffffffffffffffffffffffffffffffffffffff1661052d6107ee565b73ffffffffffffffffffffffffffffffffffffffff1614610583576040517f08c379a000000000000000000000000000000000000000000000000000000000815260040161057a90611558565b60405180910390fd5b600660009054906101000a900460ff166105d2576040517f08c379a00000000000000000000000000000000000000000000000000000000081526004016105c9906114d8565b60405180910390fd5b600860008273ffffffffffffffffffffffffffffffffffffffff1673ffffffffffffffffffffffffffffffffffffffff16815260200190815260200160002060009054906101000a900460ff161561065f576040517f08c379a0000000000000000000000000000000000000000000000000000000008152600401610656906115b8565b60405180910390fd5b60008173ffffffffffffffffffffffffffffffffffffffff166370a08231306040518263ffffffff1660e01b815260040161069a9190611457565b60206040518083038186803b1580156106b257600080fd5b505afa1580156106c6573d6000803e3d6000fd5b505050506040513d601f19601f820116820180604052508101906106ea91906110e8565b905060006106f783610860565b9050600061070e8284610b8390919063ffffffff16565b90506001600860008673ffffffffffffffffffffffffffffffffffffffff1673ffffffffffffffffffffffffffffffffffffffff16815260200190815260200160002060006101000a81548160ff02191690831515021790555061079a6107736107ee565b828673ffffffffffffffffffffffffffffffffffffffff16610a319092919063ffffffff16565b7f39983c6d4d174a7aee564f449d4a5c3c7ac9649d72b7793c56901183996f8af6846040516107c99190611457565b60405180910390a150505050565b6000600660009054906101000a900460ff16905090565b60008060009054906101000a900473ffffffffffffffffffffffffffffffffffffffff16905090565b6000600760008373ffffffffffffffffffffffffffffffffffffffff1673ffffffffffffffffffffffffffffffffffffffff168152602001908152602001600020549050919050565b60006108bc600760008473ffffffffffffffffffffffffffffffffffffffff1673ffffffffffffffffffffffffffffffffffffffff168152602001908152602001600020546108ae84610b99565b610b8390919063ffffffff16565b9050919050565b6000600454905090565b6108d5610ab7565b73ffffffffffffffffffffffffffffffffffffffff166108f36107ee565b73ffffffffffffffffffffffffffffffffffffffff1614610949576040517f08c379a000000000000000000000000000000000000000000000000000000000815260040161094090611558565b60405180910390fd5b600073ffffffffffffffffffffffffffffffffffffffff168173ffffffffffffffffffffffffffffffffffffffff1614156109b9576040517f08c379a00000000000000000000000000000000000000000000000000000000081526004016109b0906114f8565b60405180910390fd5b6109c281610abf565b50565b6000600860008373ffffffffffffffffffffffffffffffffffffffff1673ffffffffffffffffffffffffffffffffffffffff16815260200190815260200160002060009054906101000a900460ff169050919050565b60008183610a299190611625565b905092915050565b610ab28363a9059cbb60e01b8484604051602401610a50929190611472565b604051602081830303815290604052907bffffffffffffffffffffffffffffffffffffffffffffffffffffffff19166020820180517bffffffffffffffffffffffffffffffffffffffffffffffffffffffff8381831617835250505050610d54565b505050565b600033905090565b60008060009054906101000a900473ffffffffffffffffffffffffffffffffffffffff169050816000806101000a81548173ffffffffffffffffffffffffffffffffffffffff021916908373ffffffffffffffffffffffffffffffffffffffff1602179055508173ffffffffffffffffffffffffffffffffffffffff168173ffffffffffffffffffffffffffffffffffffffff167f8be0079c531659141344cd1fd0a4f28419497f9722a3daafe3b4186f6b6457e060405160405180910390a35050565b60008183610b919190611706565b905092915050565b6000808273ffffffffffffffffffffffffffffffffffffffff166370a08231306040518263ffffffff1660e01b8152600401610bd59190611457565b60206040518083038186803b158015610bed57600080fd5b505afa158015610c01573d6000803e3d6000fd5b505050506040513d601f19601f82011682018060405250810190610c2591906110e8565b90506000610c7b600760008673ffffffffffffffffffffffffffffffffffffffff1673ffffffffffffffffffffffffffffffffffffffff1681526020019081526020016000205483610a1b90919063ffffffff16565b9050600354421015610c9257600092505050610d4f565b610ca9600554600454610a1b90919063ffffffff16565b42101580610d005750600860008573ffffffffffffffffffffffffffffffffffffffff1673ffffffffffffffffffffffffffffffffffffffff16815260200190815260200160002060009054906101000a900460ff165b15610d0f578092505050610d4f565b610d4a600554610d3c610d2d60045442610b8390919063ffffffff16565b84610e1b90919063ffffffff16565b610e3190919063ffffffff16565b925050505b919050565b6000610db6826040518060400160405280602081526020017f5361666545524332303a206c6f772d6c6576656c2063616c6c206661696c65648152508573ffffffffffffffffffffffffffffffffffffffff16610e479092919063ffffffff16565b9050600081511115610e165780806020019051810190610dd69190611096565b610e15576040517f08c379a0000000000000000000000000000000000000000000000000000000008152600401610e0c90611598565b60405180910390fd5b5b505050565b60008183610e2991906116ac565b905092915050565b60008183610e3f919061167b565b905092915050565b6060610e568484600085610e5f565b90509392505050565b606082471015610ea4576040517f08c379a0000000000000000000000000000000000000000000000000000000008152600401610e9b90611538565b60405180910390fd5b610ead85610f73565b610eec576040517f08c379a0000000000000000000000000000000000000000000000000000000008152600401610ee390611578565b60405180910390fd5b6000808673ffffffffffffffffffffffffffffffffffffffff168587604051610f159190611440565b60006040518083038185875af1925050503d8060008114610f52576040519150601f19603f3d011682016040523d82523d6000602084013e610f57565b606091505b5091509150610f67828286610fb2565b92505050949350505050565b6000808273ffffffffffffffffffffffffffffffffffffffff16803b806020016040519081016040528181526000908060200190933c51119050919050565b60608315610fc257829050611012565b600083511115610fd55782518084602001fd5b816040517f08c379a000000000000000000000000000000000000000000000000000000000815260040161100991906114b6565b60405180910390fd5b9392505050565b60008135905061102881611836565b92915050565b60008151905061103d8161184d565b92915050565b60008135905061105281611864565b92915050565b6000815190506110678161187b565b92915050565b60006020828403121561107f57600080fd5b600061108d84828501611019565b91505092915050565b6000602082840312156110a857600080fd5b60006110b68482850161102e565b91505092915050565b6000602082840312156110d157600080fd5b60006110df84828501611043565b91505092915050565b6000602082840312156110fa57600080fd5b600061110884828501611058565b91505092915050565b61111a8161173a565b82525050565b6111298161174c565b82525050565b600061113a826115f3565b6111448185611609565b9350611154818560208601611794565b80840191505092915050565b600061116b826115fe565b6111758185611614565b9350611185818560208601611794565b61118e81611825565b840191505092915050565b60006111a6601b83611614565b91507f546f6b656e56657374696e673a2063616e6e6f74207265766f6b6500000000006000830152602082019050919050565b60006111e6602683611614565b91507f4f776e61626c653a206e6577206f776e657220697320746865207a65726f206160008301527f64647265737300000000000000000000000000000000000000000000000000006020830152604082019050919050565b600061124c601f83611614565b91507f546f6b656e56657374696e673a206e6f20746f6b656e732061726520647565006000830152602082019050919050565b600061128c602683611614565b91507f416464726573733a20696e73756666696369656e742062616c616e636520666f60008301527f722063616c6c00000000000000000000000000000000000000000000000000006020830152604082019050919050565b60006112f2602083611614565b91507f4f776e61626c653a2063616c6c6572206973206e6f7420746865206f776e65726000830152602082019050919050565b6000611332601d83611614565b91507f416464726573733a2063616c6c20746f206e6f6e2d636f6e74726163740000006000830152602082019050919050565b6000611372602a83611614565b91507f5361666545524332303a204552433230206f7065726174696f6e20646964206e60008301527f6f742073756363656564000000000000000000000000000000000000000000006020830152604082019050919050565b60006113d8602383611614565b91507f546f6b656e56657374696e673a20746f6b656e20616c7265616479207265766f60008301527f6b656400000000000000000000000000000000000000000000000000000000006020830152604082019050919050565b61143a8161178a565b82525050565b600061144c828461112f565b915081905092915050565b600060208201905061146c6000830184611111565b92915050565b60006040820190506114876000830185611111565b6114946020830184611431565b9392505050565b60006020820190506114b06000830184611120565b92915050565b600060208201905081810360008301526114d08184611160565b905092915050565b600060208201905081810360008301526114f181611199565b9050919050565b60006020820190508181036000830152611511816111d9565b9050919050565b600060208201905081810360008301526115318161123f565b9050919050565b600060208201905081810360008301526115518161127f565b9050919050565b60006020820190508181036000830152611571816112e5565b9050919050565b6000602082019050818103600083015261159181611325565b9050919050565b600060208201905081810360008301526115b181611365565b9050919050565b600060208201905081810360008301526115d1816113cb565b9050919050565b60006020820190506115ed6000830184611431565b92915050565b600081519050919050565b600081519050919050565b600081905092915050565b600082825260208201905092915050565b60006116308261178a565b915061163b8361178a565b9250827fffffffffffffffffffffffffffffffffffffffffffffffffffffffffffffffff038211156116705761166f6117c7565b5b828201905092915050565b60006116868261178a565b91506116918361178a565b9250826116a1576116a06117f6565b5b828204905092915050565b60006116b78261178a565b91506116c28361178a565b9250817fffffffffffffffffffffffffffffffffffffffffffffffffffffffffffffffff04831182151516156116fb576116fa6117c7565b5b828202905092915050565b60006117118261178a565b915061171c8361178a565b92508282101561172f5761172e6117c7565b5b828203905092915050565b60006117458261176a565b9050919050565b60008115159050919050565b60006117638261173a565b9050919050565b600073ffffffffffffffffffffffffffffffffffffffff82169050919050565b6000819050919050565b60005b838110156117b2578082015181840152602081019050611797565b838111156117c1576000848401525b50505050565b7f4e487b7100000000000000000000000000000000000000000000000000000000600052601160045260246000fd5b7f4e487b7100000000000000000000000000000000000000000000000000000000600052601260045260246000fd5b6000601f19601f8301169050919050565b61183f8161173a565b811461184a57600080fd5b50565b6118568161174c565b811461186157600080fd5b50565b61186d81611758565b811461187857600080fd5b50565b6118848161178a565b811461188f57600080fd5b5056fea264697066735822122093a52e619eba014841c87c2b3b9e1cf2181f3c0d92e3725b875165fd9786a39264736f6c63430008000033a26469706673582212207ef67f18c724f2be1a07d465d08b82669e49606300c58c01cc22d1156b28daee64736f6c63430008000033608060405234801561001057600080fd5b5060006100216100a060201b60201c565b9050806000806101000a81548173ffffffffffffffffffffffffffffffffffffffff021916908373ffffffffffffffffffffffffffffffffffffffff1602179055507f4101e71e974f68df5e9730cc223280b41654676bbb052cdcc735c3337e64d2d98160405161009291906100b7565b60405180910390a150610104565b600033905090565b6100b1816100d2565b82525050565b60006020820190506100cc60008301846100a8565b92915050565b60006100dd826100e4565b9050919050565b600073ffffffffffffffffffffffffffffffffffffffff82169050919050565b6106d4806101136000396000f3fe608060405234801561001057600080fd5b50600436106100415760003560e01c80632348238c14610046578063beabacc814610062578063c6dbdf611461007e575b600080fd5b610060600480360381019061005b91906103c8565b61009c565b005b61007c6004803603810190610077919061041a565b61021b565b005b610086610343565b6040516100939190610553565b60405180910390f35b60008054906101000a900473ffffffffffffffffffffffffffffffffffffffff1673ffffffffffffffffffffffffffffffffffffffff166100db61036c565b73ffffffffffffffffffffffffffffffffffffffff1614610131576040517f08c379a0000000000000000000000000000000000000000000000000000000008152600401610128906105b7565b60405180910390fd5b600073ffffffffffffffffffffffffffffffffffffffff168173ffffffffffffffffffffffffffffffffffffffff1614156101a1576040517f08c379a000000000000000000000000000000000000000000000000000000000815260040161019890610597565b60405180910390fd5b806000806101000a81548173ffffffffffffffffffffffffffffffffffffffff021916908373ffffffffffffffffffffffffffffffffffffffff1602179055507f4101e71e974f68df5e9730cc223280b41654676bbb052cdcc735c3337e64d2d9816040516102109190610553565b60405180910390a150565b60008054906101000a900473ffffffffffffffffffffffffffffffffffffffff1673ffffffffffffffffffffffffffffffffffffffff1661025a61036c565b73ffffffffffffffffffffffffffffffffffffffff16146102b0576040517f08c379a00000000000000000000000000000000000000000000000000000000081526004016102a7906105b7565b60405180910390fd5b8273ffffffffffffffffffffffffffffffffffffffff1663a9059cbb83836040518363ffffffff1660e01b81526004016102eb92919061056e565b602060405180830381600087803b15801561030557600080fd5b505af1158015610319573d6000803e3d6000fd5b505050506040513d601f19601f8201168201806040525081019061033d91906103f1565b50505050565b60008060009054906101000a900473ffffffffffffffffffffffffffffffffffffffff16905090565b600033905090565b60008135905061038381610642565b92915050565b60008151905061039881610659565b92915050565b6000813590506103ad81610670565b92915050565b6000813590506103c281610687565b92915050565b6000602082840312156103da57600080fd5b60006103e884828501610374565b91505092915050565b60006020828403121561040357600080fd5b600061041184828501610389565b91505092915050565b60008060006060848603121561042f57600080fd5b600061043d8682870161039e565b935050602061044e86828701610374565b925050604061045f868287016103b3565b9150509250925092565b610472816105e8565b82525050565b6000610485602a836105d7565b91507f5365636f6e646172793a206e6577207072696d61727920697320746865207a6560008301527f726f2061646472657373000000000000000000000000000000000000000000006020830152604082019050919050565b60006104eb602c836105d7565b91507f5365636f6e646172793a2063616c6c6572206973206e6f74207468652070726960008301527f6d617279206163636f756e7400000000000000000000000000000000000000006020830152604082019050919050565b61054d81610638565b82525050565b60006020820190506105686000830184610469565b92915050565b60006040820190506105836000830185610469565b6105906020830184610544565b9392505050565b600060208201905081810360008301526105b081610478565b9050919050565b600060208201905081810360008301526105d0816104de565b9050919050565b600082825260208201905092915050565b60006105f382610618565b9050919050565b60008115159050919050565b6000610611826105e8565b9050919050565b600073ffffffffffffffffffffffffffffffffffffffff82169050919050565b6000819050919050565b61064b816105e8565b811461065657600080fd5b50565b610662816105fa565b811461066d57600080fd5b50565b61067981610606565b811461068457600080fd5b50565b61069081610638565b811461069b57600080fd5b5056fea26469706673582212202af3579c58cdb06aebd10c4af542a28c71ced4c4f625cdce0b693ef00bb6cbd664736f6c63430008000033",
  "linkReferences": {},
  "deployedLinkReferences": {}
}