{
  "_format": "hh-sol-artifact-1",
  "contractName": "Listing",
  "sourceName": "contracts/marketplace/listing.sol",
  "abi": [
    {
      "inputs": [
        {
          "internalType": "uint256",
          "name": "_feePercent",
          "type": "uint256"
        },
        {
          "internalType": "address",
          "name": "_wallet",
          "type": "address"
        }
      ],
      "stateMutability": "nonpayable",
      "type": "constructor"
    },
    {
      "anonymous": false,
      "inputs": [
        {
          "indexed": false,
          "internalType": "uint256",
          "name": "itemId",
          "type": "uint256"
        },
        {
          "indexed": true,
          "internalType": "address",
          "name": "token",
          "type": "address"
        },
        {
          "indexed": false,
          "internalType": "uint256",
          "name": "tokenId",
          "type": "uint256"
        },
        {
          "indexed": false,
          "internalType": "uint256",
          "name": "price",
          "type": "uint256"
        },
        {
          "indexed": false,
          "internalType": "uint256",
          "name": "amount",
          "type": "uint256"
        },
        {
          "indexed": true,
          "internalType": "address",
          "name": "seller",
          "type": "address"
        },
        {
          "indexed": true,
          "internalType": "address",
          "name": "buyer",
          "type": "address"
        }
      ],
      "name": "Bought",
      "type": "event"
    },
    {
      "anonymous": false,
      "inputs": [
        {
          "indexed": false,
          "internalType": "uint256",
          "name": "itemId",
          "type": "uint256"
        },
        {
          "indexed": true,
          "internalType": "address",
          "name": "token",
          "type": "address"
        },
        {
          "indexed": false,
          "internalType": "uint256",
          "name": "tokenId",
          "type": "uint256"
        },
        {
          "indexed": false,
          "internalType": "uint256",
          "name": "price",
          "type": "uint256"
        },
        {
          "indexed": false,
          "internalType": "uint256",
          "name": "amount",
          "type": "uint256"
        },
        {
          "indexed": true,
          "internalType": "address",
          "name": "seller",
          "type": "address"
        }
      ],
      "name": "Offered",
      "type": "event"
    },
    {
      "inputs": [],
      "name": "feeAccount",
      "outputs": [
        {
          "internalType": "address payable",
          "name": "",
          "type": "address"
        }
      ],
      "stateMutability": "view",
      "type": "function"
    },
    {
      "inputs": [],
      "name": "feePercent",
      "outputs": [
        {
          "internalType": "uint256",
          "name": "",
          "type": "uint256"
        }
      ],
      "stateMutability": "view",
      "type": "function"
    },
    {
      "inputs": [
        {
          "internalType": "uint256",
          "name": "_itemId",
          "type": "uint256"
        },
        {
          "internalType": "uint256",
          "name": "amount",
          "type": "uint256"
        }
      ],
      "name": "getTotalPrice",
      "outputs": [
        {
          "internalType": "uint256",
          "name": "",
          "type": "uint256"
        }
      ],
      "stateMutability": "view",
      "type": "function"
    },
    {
      "inputs": [],
      "name": "itemCount",
      "outputs": [
        {
          "internalType": "uint256",
          "name": "",
          "type": "uint256"
        }
      ],
      "stateMutability": "view",
      "type": "function"
    },
    {
      "inputs": [
        {
          "internalType": "uint256",
          "name": "",
          "type": "uint256"
        }
      ],
      "name": "items",
      "outputs": [
        {
          "internalType": "uint256",
          "name": "itemId",
          "type": "uint256"
        },
        {
          "internalType": "contract IERC1155",
          "name": "token",
          "type": "address"
        },
        {
          "internalType": "uint256",
          "name": "tokenId",
          "type": "uint256"
        },
        {
          "internalType": "uint256",
          "name": "price",
          "type": "uint256"
        },
        {
          "internalType": "uint256",
          "name": "amount",
          "type": "uint256"
        },
        {
          "internalType": "address payable",
          "name": "seller",
          "type": "address"
        }
      ],
      "stateMutability": "view",
      "type": "function"
    },
    {
      "inputs": [
        {
          "internalType": "contract IERC1155",
          "name": "_token",
          "type": "address"
        },
        {
          "internalType": "uint256",
          "name": "_tokenId",
          "type": "uint256"
        },
        {
          "internalType": "uint256",
          "name": "_price",
          "type": "uint256"
        },
        {
          "internalType": "uint256",
          "name": "amount",
          "type": "uint256"
        }
      ],
      "name": "makeItem",
      "outputs": [],
      "stateMutability": "nonpayable",
      "type": "function"
    },
    {
      "inputs": [
        {
          "internalType": "uint256",
          "name": "_itemId",
          "type": "uint256"
        },
        {
          "internalType": "uint256",
          "name": "amount",
          "type": "uint256"
        }
      ],
      "name": "purchaseItem",
      "outputs": [],
      "stateMutability": "payable",
      "type": "function"
    }
  ],
  "bytecode": "0x60c06040523480156200001157600080fd5b5060405162001271380380620012718339818101604052810190620000379190620000b4565b60016000819055508073ffffffffffffffffffffffffffffffffffffffff1660808173ffffffffffffffffffffffffffffffffffffffff1660601b815250508160a08181525050505062000167565b600081519050620000978162000133565b92915050565b600081519050620000ae816200014d565b92915050565b60008060408385031215620000c857600080fd5b6000620000d8858286016200009d565b9250506020620000eb8582860162000086565b9150509250929050565b6000620001028262000109565b9050919050565b600073ffffffffffffffffffffffffffffffffffffffff82169050919050565b6000819050919050565b6200013e81620000f5565b81146200014a57600080fd5b50565b620001588162000129565b81146200016457600080fd5b50565b60805160601c60a0516110d36200019e600039600081816101c0015261051301526000818161022b015261077b01526110d36000f3fe6080604052600436106100705760003560e01c80636bfb0d011161004e5780636bfb0d01146101065780637fd6f15c14610131578063bfb231d21461015c578063e06756981461019e57610070565b8063126a86ea1461007557806365e17c9d146100b2578063696aae08146100dd575b600080fd5b34801561008157600080fd5b5061009c60048036038101906100979190610a41565b6101ba565b6040516100a99190610d4c565b60405180910390f35b3480156100be57600080fd5b506100c7610229565b6040516100d49190610c39565b60405180910390f35b3480156100e957600080fd5b5061010460048036038101906100ff91906109b5565b61024d565b005b34801561011257600080fd5b5061011b61050b565b6040516101289190610d4c565b60405180910390f35b34801561013d57600080fd5b50610146610511565b6040516101539190610d4c565b60405180910390f35b34801561016857600080fd5b50610183600480360381019061017e9190610a18565b610535565b60405161019596959493929190610d67565b60405180910390f35b6101b860048036038101906101b39190610a41565b6105b1565b005b600060647f000000000000000000000000000000000000000000000000000000000000000060646101eb9190610e2f565b83600260008781526020019081526020016000206003015461020d9190610eb6565b6102179190610eb6565b6102219190610e85565b905092915050565b7f000000000000000000000000000000000000000000000000000000000000000081565b60026000541415610293576040517f08c379a000000000000000000000000000000000000000000000000000000000815260040161028a90610d2c565b60405180910390fd5b6002600081905550600082116102de576040517f08c379a00000000000000000000000000000000000000000000000000000000081526004016102d590610ccc565b60405180910390fd5b600160008154809291906102f190610fc8565b91905055508373ffffffffffffffffffffffffffffffffffffffff1663f242432a333086856040518563ffffffff1660e01b81526004016103359493929190610c54565b600060405180830381600087803b15801561034f57600080fd5b505af1158015610363573d6000803e3d6000fd5b505050506040518060c0016040528060015481526020018573ffffffffffffffffffffffffffffffffffffffff1681526020018481526020018381526020018281526020013373ffffffffffffffffffffffffffffffffffffffff168152506002600060015481526020019081526020016000206000820151816000015560208201518160010160006101000a81548173ffffffffffffffffffffffffffffffffffffffff021916908373ffffffffffffffffffffffffffffffffffffffff16021790555060408201518160020155606082015181600301556080820151816004015560a08201518160050160006101000a81548173ffffffffffffffffffffffffffffffffffffffff021916908373ffffffffffffffffffffffffffffffffffffffff1602179055509050503373ffffffffffffffffffffffffffffffffffffffff168473ffffffffffffffffffffffffffffffffffffffff167f8a7207dec41e68d1fbb358baac1c6ead9b1741d156d9bb551ae56d77c4a04e936001548686866040516104f59493929190610dc8565b60405180910390a3600160008190555050505050565b60015481565b7f000000000000000000000000000000000000000000000000000000000000000081565b60026020528060005260406000206000915090508060000154908060010160009054906101000a900473ffffffffffffffffffffffffffffffffffffffff16908060020154908060030154908060040154908060050160009054906101000a900473ffffffffffffffffffffffffffffffffffffffff16905086565b600260005414156105f7576040517f08c379a00000000000000000000000000000000000000000000000000000000081526004016105ee90610d2c565b60405180910390fd5b6002600081905550600061060b83836101ba565b9050600060026000858152602001908152602001600020905060008411801561063657506001548411155b610675576040517f08c379a000000000000000000000000000000000000000000000000000000000815260040161066c90610d0c565b60405180910390fd5b813410156106b8576040517f08c379a00000000000000000000000000000000000000000000000000000000081526004016106af90610cec565b60405180910390fd5b82816004015410156106ff576040517f08c379a00000000000000000000000000000000000000000000000000000000081526004016106f690610cac565b60405180910390fd5b8060050160009054906101000a900473ffffffffffffffffffffffffffffffffffffffff1673ffffffffffffffffffffffffffffffffffffffff166108fc84836003015461074d9190610eb6565b9081150290604051600060405180830381858888f19350505050158015610778573d6000803e3d6000fd5b507f000000000000000000000000000000000000000000000000000000000000000073ffffffffffffffffffffffffffffffffffffffff166108fc8483600301546107c39190610eb6565b846107ce9190610f10565b9081150290604051600060405180830381858888f193505050501580156107f9573d6000803e3d6000fd5b5082816004015461080a9190610f10565b81600401819055508060010160009054906101000a900473ffffffffffffffffffffffffffffffffffffffff1673ffffffffffffffffffffffffffffffffffffffff1663f242432a30338460020154876040518563ffffffff1660e01b81526004016108799493929190610c54565b600060405180830381600087803b15801561089357600080fd5b505af11580156108a7573d6000803e3d6000fd5b505050503373ffffffffffffffffffffffffffffffffffffffff168160050160009054906101000a900473ffffffffffffffffffffffffffffffffffffffff1673ffffffffffffffffffffffffffffffffffffffff168260010160009054906101000a900473ffffffffffffffffffffffffffffffffffffffff1673ffffffffffffffffffffffffffffffffffffffff167f5c282128ef874365df343162aa2336aae20550adb799aeaf030315e7308978f18785600201548660030154896040516109759493929190610dc8565b60405180910390a4505060016000819055505050565b60008135905061099a8161106f565b92915050565b6000813590506109af81611086565b92915050565b600080600080608085870312156109cb57600080fd5b60006109d98782880161098b565b94505060206109ea878288016109a0565b93505060406109fb878288016109a0565b9250506060610a0c878288016109a0565b91505092959194509250565b600060208284031215610a2a57600080fd5b6000610a38848285016109a0565b91505092915050565b60008060408385031215610a5457600080fd5b6000610a62858286016109a0565b9250506020610a73858286016109a0565b9150509250929050565b610a8681610f56565b82525050565b610a9581610f44565b82525050565b610aa481610fa4565b82525050565b6000610ab7601e83610e1e565b91507f616d6f756e7420626967676572207468616e206974656d2e616d6f756e7400006000830152602082019050919050565b6000610af7601f83610e1e565b91507f5072696365206d7573742062652067726561746572207468616e207a65726f006000830152602082019050919050565b6000610b37603383610e1e565b91507f6e6f7420656e6f75676820657468657220746f20636f766572206974656d207060008301527f7269636520616e64206d61726b657420666565000000000000000000000000006020830152604082019050919050565b6000610b9d601283610e1e565b91507f6974656d20646f65736e277420657869737400000000000000000000000000006000830152602082019050919050565b6000610bdd600083610e0d565b9150600082019050919050565b6000610bf7601f83610e1e565b91507f5265656e7472616e637947756172643a207265656e7472616e742063616c6c006000830152602082019050919050565b610c3381610f9a565b82525050565b6000602082019050610c4e6000830184610a7d565b92915050565b600060a082019050610c696000830187610a8c565b610c766020830186610a8c565b610c836040830185610c2a565b610c906060830184610c2a565b8181036080830152610ca181610bd0565b905095945050505050565b60006020820190508181036000830152610cc581610aaa565b9050919050565b60006020820190508181036000830152610ce581610aea565b9050919050565b60006020820190508181036000830152610d0581610b2a565b9050919050565b60006020820190508181036000830152610d2581610b90565b9050919050565b60006020820190508181036000830152610d4581610bea565b9050919050565b6000602082019050610d616000830184610c2a565b92915050565b600060c082019050610d7c6000830189610c2a565b610d896020830188610a9b565b610d966040830187610c2a565b610da36060830186610c2a565b610db06080830185610c2a565b610dbd60a0830184610a7d565b979650505050505050565b6000608082019050610ddd6000830187610c2a565b610dea6020830186610c2a565b610df76040830185610c2a565b610e046060830184610c2a565b95945050505050565b600082825260208201905092915050565b600082825260208201905092915050565b6000610e3a82610f9a565b9150610e4583610f9a565b9250827fffffffffffffffffffffffffffffffffffffffffffffffffffffffffffffffff03821115610e7a57610e79611011565b5b828201905092915050565b6000610e9082610f9a565b9150610e9b83610f9a565b925082610eab57610eaa611040565b5b828204905092915050565b6000610ec182610f9a565b9150610ecc83610f9a565b9250817fffffffffffffffffffffffffffffffffffffffffffffffffffffffffffffffff0483118215151615610f0557610f04611011565b5b828202905092915050565b6000610f1b82610f9a565b9150610f2683610f9a565b925082821015610f3957610f38611011565b5b828203905092915050565b6000610f4f82610f7a565b9050919050565b6000610f6182610f7a565b9050919050565b6000610f7382610f44565b9050919050565b600073ffffffffffffffffffffffffffffffffffffffff82169050919050565b6000819050919050565b6000610faf82610fb6565b9050919050565b6000610fc182610f7a565b9050919050565b6000610fd382610f9a565b91507fffffffffffffffffffffffffffffffffffffffffffffffffffffffffffffffff82141561100657611005611011565b5b600182019050919050565b7f4e487b7100000000000000000000000000000000000000000000000000000000600052601160045260246000fd5b7f4e487b7100000000000000000000000000000000000000000000000000000000600052601260045260246000fd5b61107881610f68565b811461108357600080fd5b50565b61108f81610f9a565b811461109a57600080fd5b5056fea264697066735822122084bf661d9e8f8f684ecf8e9891cdf21e59e6f1c411686c50ae91cf79b8cb7abd64736f6c63430008000033",
  "linkReferences": {},
  "deployedLinkReferences": {}
}