{
  "_format": "hh-sol-artifact-1",
  "contractName": "SecurityToken",
  "sourceName": "contracts/Security Token/SecurityToken.sol",
  "abi": [
    {
      "inputs": [
        {
          "internalType": "string",
          "name": "_uri",
          "type": "string"
        },
        {
          "internalType": "string",
          "name": "_name",
          "type": "string"
        },
        {
          "internalType": "string",
          "name": "_symbol",
          "type": "string"
        }
      ],
      "stateMutability": "nonpayable",
      "type": "constructor"
    },
    {
      "anonymous": false,
      "inputs": [
        {
          "indexed": true,
          "internalType": "address",
          "name": "account",
          "type": "address"
        },
        {
          "indexed": true,
          "internalType": "address",
          "name": "operator",
          "type": "address"
        },
        {
          "indexed": false,
          "internalType": "bool",
          "name": "approved",
          "type": "bool"
        }
      ],
      "name": "ApprovalForAll",
      "type": "event"
    },
    {
      "anonymous": false,
      "inputs": [
        {
          "indexed": true,
          "internalType": "address",
          "name": "operator",
          "type": "address"
        },
        {
          "indexed": true,
          "internalType": "address",
          "name": "from",
          "type": "address"
        },
        {
          "indexed": true,
          "internalType": "address",
          "name": "to",
          "type": "address"
        },
        {
          "indexed": false,
          "internalType": "uint256[]",
          "name": "ids",
          "type": "uint256[]"
        },
        {
          "indexed": false,
          "internalType": "uint256[]",
          "name": "values",
          "type": "uint256[]"
        }
      ],
      "name": "TransferBatch",
      "type": "event"
    },
    {
      "anonymous": false,
      "inputs": [
        {
          "indexed": true,
          "internalType": "address",
          "name": "operator",
          "type": "address"
        },
        {
          "indexed": true,
          "internalType": "address",
          "name": "from",
          "type": "address"
        },
        {
          "indexed": true,
          "internalType": "address",
          "name": "to",
          "type": "address"
        },
        {
          "indexed": false,
          "internalType": "uint256",
          "name": "id",
          "type": "uint256"
        },
        {
          "indexed": false,
          "internalType": "uint256",
          "name": "value",
          "type": "uint256"
        }
      ],
      "name": "TransferSingle",
      "type": "event"
    },
    {
      "anonymous": false,
      "inputs": [
        {
          "indexed": false,
          "internalType": "string",
          "name": "value",
          "type": "string"
        },
        {
          "indexed": true,
          "internalType": "uint256",
          "name": "id",
          "type": "uint256"
        }
      ],
      "name": "URI",
      "type": "event"
    },
    {
      "inputs": [
        {
          "internalType": "address",
          "name": "account",
          "type": "address"
        },
        {
          "internalType": "uint256",
          "name": "id",
          "type": "uint256"
        }
      ],
      "name": "balanceOf",
      "outputs": [
        {
          "internalType": "uint256",
          "name": "",
          "type": "uint256"
        }
      ],
      "stateMutability": "view",
      "type": "function"
    },
    {
      "inputs": [
        {
          "internalType": "address[]",
          "name": "accounts",
          "type": "address[]"
        },
        {
          "internalType": "uint256[]",
          "name": "ids",
          "type": "uint256[]"
        }
      ],
      "name": "balanceOfBatch",
      "outputs": [
        {
          "internalType": "uint256[]",
          "name": "",
          "type": "uint256[]"
        }
      ],
      "stateMutability": "view",
      "type": "function"
    },
    {
      "inputs": [
        {
          "internalType": "uint256",
          "name": "id",
          "type": "uint256"
        }
      ],
      "name": "exists",
      "outputs": [
        {
          "internalType": "bool",
          "name": "",
          "type": "bool"
        }
      ],
      "stateMutability": "view",
      "type": "function"
    },
    {
      "inputs": [],
      "name": "getIds",
      "outputs": [
        {
          "internalType": "uint256[]",
          "name": "",
          "type": "uint256[]"
        }
      ],
      "stateMutability": "view",
      "type": "function"
    },
    {
      "inputs": [
        {
          "internalType": "address",
          "name": "account",
          "type": "address"
        },
        {
          "internalType": "address",
          "name": "operator",
          "type": "address"
        }
      ],
      "name": "isApprovedForAll",
      "outputs": [
        {
          "internalType": "bool",
          "name": "",
          "type": "bool"
        }
      ],
      "stateMutability": "view",
      "type": "function"
    },
    {
      "inputs": [
        {
          "internalType": "address",
          "name": "to",
          "type": "address"
        },
        {
          "internalType": "uint256",
          "name": "id",
          "type": "uint256"
        },
        {
          "internalType": "uint256",
          "name": "amount",
          "type": "uint256"
        },
        {
          "internalType": "bytes",
          "name": "data",
          "type": "bytes"
        }
      ],
      "name": "mint",
      "outputs": [
        {
          "internalType": "bool",
          "name": "",
          "type": "bool"
        }
      ],
      "stateMutability": "nonpayable",
      "type": "function"
    },
    {
      "inputs": [
        {
          "internalType": "uint256",
          "name": "tokenId",
          "type": "uint256"
        },
        {
          "internalType": "string",
          "name": "tokenURI",
          "type": "string"
        },
        {
          "internalType": "address",
          "name": "benificary",
          "type": "address"
        },
        {
          "internalType": "uint256",
          "name": "amount",
          "type": "uint256"
        }
      ],
      "name": "mintToken",
      "outputs": [
        {
          "internalType": "bool",
          "name": "",
          "type": "bool"
        }
      ],
      "stateMutability": "nonpayable",
      "type": "function"
    },
    {
      "inputs": [],
      "name": "name",
      "outputs": [
        {
          "internalType": "string",
          "name": "",
          "type": "string"
        }
      ],
      "stateMutability": "view",
      "type": "function"
    },
    {
      "inputs": [
        {
          "internalType": "address",
          "name": "from",
          "type": "address"
        },
        {
          "internalType": "address",
          "name": "to",
          "type": "address"
        },
        {
          "internalType": "uint256[]",
          "name": "ids",
          "type": "uint256[]"
        },
        {
          "internalType": "uint256[]",
          "name": "amounts",
          "type": "uint256[]"
        },
        {
          "internalType": "bytes",
          "name": "data",
          "type": "bytes"
        }
      ],
      "name": "safeBatchTransferFrom",
      "outputs": [],
      "stateMutability": "nonpayable",
      "type": "function"
    },
    {
      "inputs": [
        {
          "internalType": "address",
          "name": "from",
          "type": "address"
        },
        {
          "internalType": "address",
          "name": "to",
          "type": "address"
        },
        {
          "internalType": "uint256",
          "name": "id",
          "type": "uint256"
        },
        {
          "internalType": "uint256",
          "name": "amount",
          "type": "uint256"
        },
        {
          "internalType": "bytes",
          "name": "data",
          "type": "bytes"
        }
      ],
      "name": "safeTransferFrom",
      "outputs": [],
      "stateMutability": "nonpayable",
      "type": "function"
    },
    {
      "inputs": [
        {
          "internalType": "address",
          "name": "operator",
          "type": "address"
        },
        {
          "internalType": "bool",
          "name": "approved",
          "type": "bool"
        }
      ],
      "name": "setApprovalForAll",
      "outputs": [],
      "stateMutability": "nonpayable",
      "type": "function"
    },
    {
      "inputs": [
        {
          "internalType": "bytes4",
          "name": "interfaceId",
          "type": "bytes4"
        }
      ],
      "name": "supportsInterface",
      "outputs": [
        {
          "internalType": "bool",
          "name": "",
          "type": "bool"
        }
      ],
      "stateMutability": "view",
      "type": "function"
    },
    {
      "inputs": [],
      "name": "symbol",
      "outputs": [
        {
          "internalType": "string",
          "name": "",
          "type": "string"
        }
      ],
      "stateMutability": "view",
      "type": "function"
    },
    {
      "inputs": [
        {
          "internalType": "uint256",
          "name": "id",
          "type": "uint256"
        }
      ],
      "name": "totalSupply",
      "outputs": [
        {
          "internalType": "uint256",
          "name": "",
          "type": "uint256"
        }
      ],
      "stateMutability": "view",
      "type": "function"
    },
    {
      "inputs": [
        {
          "internalType": "uint256",
          "name": "tokenId",
          "type": "uint256"
        }
      ],
      "name": "uri",
      "outputs": [
        {
          "internalType": "string",
          "name": "",
          "type": "string"
        }
      ],
      "stateMutability": "view",
      "type": "function"
    }
  ],
  "bytecode": "0x608060405260405180602001604052806000815250600390805190602001906200002b929190620000c9565b503480156200003957600080fd5b50604051620037dd380380620037dd83398181016040528101906200005f9190620001eb565b826200007181620000ad60201b60201c565b5081600690805190602001906200008a929190620000c9565b508060079080519060200190620000a3929190620000c9565b50505050620003bd565b8060029080519060200190620000c5929190620000c9565b5050565b828054620000d79062000329565b90600052602060002090601f016020900481019282620000fb576000855562000147565b82601f106200011657805160ff191683800117855562000147565b8280016001018555821562000147579182015b828111156200014657825182559160200191906001019062000129565b5b5090506200015691906200015a565b5090565b5b80821115620001755760008160009055506001016200015b565b5090565b6000620001906200018a84620002c0565b6200028c565b905082815260208101848484011115620001a957600080fd5b620001b6848285620002f3565b509392505050565b600082601f830112620001d057600080fd5b8151620001e284826020860162000179565b91505092915050565b6000806000606084860312156200020157600080fd5b600084015167ffffffffffffffff8111156200021c57600080fd5b6200022a86828701620001be565b935050602084015167ffffffffffffffff8111156200024857600080fd5b6200025686828701620001be565b925050604084015167ffffffffffffffff8111156200027457600080fd5b6200028286828701620001be565b9150509250925092565b6000604051905081810181811067ffffffffffffffff82111715620002b657620002b56200038e565b5b8060405250919050565b600067ffffffffffffffff821115620002de57620002dd6200038e565b5b601f19601f8301169050602081019050919050565b60005b8381101562000313578082015181840152602081019050620002f6565b8381111562000323576000848401525b50505050565b600060028204905060018216806200034257607f821691505b602082108114156200035957620003586200035f565b5b50919050565b7f4e487b7100000000000000000000000000000000000000000000000000000000600052602260045260246000fd5b7f4e487b7100000000000000000000000000000000000000000000000000000000600052604160045260246000fd5b61341080620003cd6000396000f3fe608060405234801561001057600080fd5b50600436106100f45760003560e01c80634e1273f411610097578063a22cb46511610066578063a22cb465146102bf578063bd85b039146102db578063e985e9c51461030b578063f242432a1461033b576100f4565b80634e1273f4146102115780634f558e7914610241578063731133e91461027157806395d89b41146102a1576100f4565b80630e89341c116100d35780630e89341c14610177578063183340ab146101a75780632b105663146101d75780632eb2c2d6146101f5576100f4565b8062fdd58e146100f957806301ffc9a71461012957806306fdde0314610159575b600080fd5b610113600480360381019061010e91906122c7565b610357565b6040516101209190612ed8565b60405180910390f35b610143600480360381019061013e91906123ea565b610420565b6040516101509190612cfb565b60405180910390f35b610161610502565b60405161016e9190612d16565b60405180910390f35b610191600480360381019061018c919061243c565b610590565b60405161019e9190612d16565b60405180910390f35b6101c160048036038101906101bc9190612465565b610675565b6040516101ce9190612cfb565b60405180910390f35b6101df610780565b6040516101ec9190612ca2565b60405180910390f35b61020f600480360381019061020a919061213d565b6107d8565b005b61022b6004803603810190610226919061237e565b610879565b6040516102389190612ca2565b60405180910390f35b61025b6004803603810190610256919061243c565b610a2a565b6040516102689190612cfb565b60405180910390f35b61028b60048036038101906102869190612303565b610a3e565b6040516102989190612cfb565b60405180910390f35b6102a9610a58565b6040516102b69190612d16565b60405180910390f35b6102d960048036038101906102d4919061228b565b610ae6565b005b6102f560048036038101906102f0919061243c565b610afc565b6040516103029190612ed8565b60405180910390f35b61032560048036038101906103209190612101565b610b19565b6040516103329190612cfb565b60405180910390f35b610355600480360381019061035091906121fc565b610bad565b005b60008073ffffffffffffffffffffffffffffffffffffffff168373ffffffffffffffffffffffffffffffffffffffff1614156103c8576040517f08c379a00000000000000000000000000000000000000000000000000000000081526004016103bf90612d78565b60405180910390fd5b60008083815260200190815260200160002060008473ffffffffffffffffffffffffffffffffffffffff1673ffffffffffffffffffffffffffffffffffffffff16815260200190815260200160002054905092915050565b60007fd9b67a26000000000000000000000000000000000000000000000000000000007bffffffffffffffffffffffffffffffffffffffffffffffffffffffff1916827bffffffffffffffffffffffffffffffffffffffffffffffffffffffff191614806104eb57507f0e89341c000000000000000000000000000000000000000000000000000000007bffffffffffffffffffffffffffffffffffffffffffffffffffffffff1916827bffffffffffffffffffffffffffffffffffffffffffffffffffffffff1916145b806104fb57506104fa82610c4e565b5b9050919050565b6006805461050f906131a2565b80601f016020809104026020016040519081016040528092919081815260200182805461053b906131a2565b80156105885780601f1061055d57610100808354040283529160200191610588565b820191906000526020600020905b81548152906001019060200180831161056b57829003601f168201915b505050505081565b606060006004600084815260200190815260200160002080546105b2906131a2565b80601f01602080910402602001604051908101604052809291908181526020018280546105de906131a2565b801561062b5780601f106106005761010080835404028352916020019161062b565b820191906000526020600020905b81548152906001019060200180831161060e57829003601f168201915b5050505050905060008151116106495761064483610cb8565b61066d565b60038160405160200161065d929190612bbc565b6040516020818303038152906040525b915050919050565b600080600090505b6008805490508110156107245785600882815481106106c5577f4e487b7100000000000000000000000000000000000000000000000000000000600052603260045260246000fd5b90600052602060002001541415610711576040517f08c379a000000000000000000000000000000000000000000000000000000000815260040161070890612db8565b60405180910390fd5b808061071c906131d4565b91505061067d565b5061072f8585610d4c565b61074a83868460405180602001604052806000815250610a3e565b50600885908060018154018082558091505060019003906000526020600020016000909190919091505560019050949350505050565b606060088054806020026020016040519081016040528092919081815260200182805480156107ce57602002820191906000526020600020905b8154815260200190600101908083116107ba575b5050505050905090565b6107e0610db8565b73ffffffffffffffffffffffffffffffffffffffff168573ffffffffffffffffffffffffffffffffffffffff161480610826575061082585610820610db8565b610b19565b5b610865576040517f08c379a000000000000000000000000000000000000000000000000000000000815260040161085c90612df8565b60405180910390fd5b6108728585858585610dc0565b5050505050565b606081518351146108bf576040517f08c379a00000000000000000000000000000000000000000000000000000000081526004016108b690612e78565b60405180910390fd5b6000835167ffffffffffffffff811115610902577f4e487b7100000000000000000000000000000000000000000000000000000000600052604160045260246000fd5b6040519080825280602002602001820160405280156109305781602001602082028036833780820191505090505b50905060005b8451811015610a1f576109c985828151811061097b577f4e487b7100000000000000000000000000000000000000000000000000000000600052603260045260246000fd5b60200260200101518583815181106109bc577f4e487b7100000000000000000000000000000000000000000000000000000000600052603260045260246000fd5b6020026020010151610357565b828281518110610a02577f4e487b7100000000000000000000000000000000000000000000000000000000600052603260045260246000fd5b60200260200101818152505080610a18906131d4565b9050610936565b508091505092915050565b600080610a3683610afc565b119050919050565b6000610a4c8585858561112e565b60019050949350505050565b60078054610a65906131a2565b80601f0160208091040260200160405190810160405280929190818152602001828054610a91906131a2565b8015610ade5780601f10610ab357610100808354040283529160200191610ade565b820191906000526020600020905b815481529060010190602001808311610ac157829003601f168201915b505050505081565b610af8610af1610db8565b83836112df565b5050565b600060056000838152602001908152602001600020549050919050565b6000600160008473ffffffffffffffffffffffffffffffffffffffff1673ffffffffffffffffffffffffffffffffffffffff16815260200190815260200160002060008373ffffffffffffffffffffffffffffffffffffffff1673ffffffffffffffffffffffffffffffffffffffff16815260200190815260200160002060009054906101000a900460ff16905092915050565b610bb5610db8565b73ffffffffffffffffffffffffffffffffffffffff168573ffffffffffffffffffffffffffffffffffffffff161480610bfb5750610bfa85610bf5610db8565b610b19565b5b610c3a576040517f08c379a0000000000000000000000000000000000000000000000000000000008152600401610c3190612d98565b60405180910390fd5b610c47858585858561144c565b5050505050565b60007f01ffc9a7000000000000000000000000000000000000000000000000000000007bffffffffffffffffffffffffffffffffffffffffffffffffffffffff1916827bffffffffffffffffffffffffffffffffffffffffffffffffffffffff1916149050919050565b606060028054610cc7906131a2565b80601f0160208091040260200160405190810160405280929190818152602001828054610cf3906131a2565b8015610d405780601f10610d1557610100808354040283529160200191610d40565b820191906000526020600020905b815481529060010190602001808311610d2357829003601f168201915b50505050509050919050565b80600460008481526020019081526020016000209080519060200190610d73929190611df9565b50817f6bb7ff708619ba0610cba295a58592e0451dee2622938c8755667688daf3529b610d9f84610590565b604051610dac9190612d16565b60405180910390a25050565b600033905090565b8151835114610e04576040517f08c379a0000000000000000000000000000000000000000000000000000000008152600401610dfb90612e98565b60405180910390fd5b600073ffffffffffffffffffffffffffffffffffffffff168473ffffffffffffffffffffffffffffffffffffffff161415610e74576040517f08c379a0000000000000000000000000000000000000000000000000000000008152600401610e6b90612dd8565b60405180910390fd5b6000610e7e610db8565b9050610e8e8187878787876116da565b60005b845181101561108b576000858281518110610ed5577f4e487b7100000000000000000000000000000000000000000000000000000000600052603260045260246000fd5b602002602001015190506000858381518110610f1a577f4e487b7100000000000000000000000000000000000000000000000000000000600052603260045260246000fd5b60200260200101519050600080600084815260200190815260200160002060008b73ffffffffffffffffffffffffffffffffffffffff1673ffffffffffffffffffffffffffffffffffffffff16815260200190815260200160002054905081811015610fbb576040517f08c379a0000000000000000000000000000000000000000000000000000000008152600401610fb290612e18565b60405180910390fd5b81810360008085815260200190815260200160002060008c73ffffffffffffffffffffffffffffffffffffffff1673ffffffffffffffffffffffffffffffffffffffff168152602001908152602001600020819055508160008085815260200190815260200160002060008b73ffffffffffffffffffffffffffffffffffffffff1673ffffffffffffffffffffffffffffffffffffffff16815260200190815260200160002060008282546110709190613096565b9250508190555050505080611084906131d4565b9050610e91565b508473ffffffffffffffffffffffffffffffffffffffff168673ffffffffffffffffffffffffffffffffffffffff168273ffffffffffffffffffffffffffffffffffffffff167f4a39dc06d4c0dbc64b70af90fd698a233a518aa5d07e595d983b8c0526c8f7fb8787604051611102929190612cc4565b60405180910390a4611118818787878787611944565b61112681878787878761194c565b505050505050565b600073ffffffffffffffffffffffffffffffffffffffff168473ffffffffffffffffffffffffffffffffffffffff16141561119e576040517f08c379a000000000000000000000000000000000000000000000000000000000815260040161119590612eb8565b60405180910390fd5b60006111a8610db8565b905060006111b585611b1c565b905060006111c285611b1c565b90506111d3836000898585896116da565b8460008088815260200190815260200160002060008973ffffffffffffffffffffffffffffffffffffffff1673ffffffffffffffffffffffffffffffffffffffff16815260200190815260200160002060008282546112329190613096565b925050819055508673ffffffffffffffffffffffffffffffffffffffff16600073ffffffffffffffffffffffffffffffffffffffff168473ffffffffffffffffffffffffffffffffffffffff167fc3d58168c5ae7397731d063d5bbf3d657854427343f4c083240f7aacaa2d0f6289896040516112b0929190612ef3565b60405180910390a46112c783600089858589611944565b6112d683600089898989611be2565b50505050505050565b8173ffffffffffffffffffffffffffffffffffffffff168373ffffffffffffffffffffffffffffffffffffffff16141561134e576040517f08c379a000000000000000000000000000000000000000000000000000000000815260040161134590612e58565b60405180910390fd5b80600160008573ffffffffffffffffffffffffffffffffffffffff1673ffffffffffffffffffffffffffffffffffffffff16815260200190815260200160002060008473ffffffffffffffffffffffffffffffffffffffff1673ffffffffffffffffffffffffffffffffffffffff16815260200190815260200160002060006101000a81548160ff0219169083151502179055508173ffffffffffffffffffffffffffffffffffffffff168373ffffffffffffffffffffffffffffffffffffffff167f17307eab39ab6107e8899845ad3d59bd9653f200f220920489ca2b5937696c318360405161143f9190612cfb565b60405180910390a3505050565b600073ffffffffffffffffffffffffffffffffffffffff168473ffffffffffffffffffffffffffffffffffffffff1614156114bc576040517f08c379a00000000000000000000000000000000000000000000000000000000081526004016114b390612dd8565b60405180910390fd5b60006114c6610db8565b905060006114d385611b1c565b905060006114e085611b1c565b90506114f08389898585896116da565b600080600088815260200190815260200160002060008a73ffffffffffffffffffffffffffffffffffffffff1673ffffffffffffffffffffffffffffffffffffffff16815260200190815260200160002054905085811015611587576040517f08c379a000000000000000000000000000000000000000000000000000000000815260040161157e90612e18565b60405180910390fd5b85810360008089815260200190815260200160002060008b73ffffffffffffffffffffffffffffffffffffffff1673ffffffffffffffffffffffffffffffffffffffff168152602001908152602001600020819055508560008089815260200190815260200160002060008a73ffffffffffffffffffffffffffffffffffffffff1673ffffffffffffffffffffffffffffffffffffffff168152602001908152602001600020600082825461163c9190613096565b925050819055508773ffffffffffffffffffffffffffffffffffffffff168973ffffffffffffffffffffffffffffffffffffffff168573ffffffffffffffffffffffffffffffffffffffff167fc3d58168c5ae7397731d063d5bbf3d657854427343f4c083240f7aacaa2d0f628a8a6040516116b9929190612ef3565b60405180910390a46116cf848a8a86868a611944565b505050505050505050565b6116e8868686868686611db2565b600073ffffffffffffffffffffffffffffffffffffffff168573ffffffffffffffffffffffffffffffffffffffff1614156117e65760005b83518110156117e457828181518110611762577f4e487b7100000000000000000000000000000000000000000000000000000000600052603260045260246000fd5b6020026020010151600560008684815181106117a7577f4e487b7100000000000000000000000000000000000000000000000000000000600052603260045260246000fd5b6020026020010151815260200190815260200160002060008282546117cc9190613096565b92505081905550806117dd906131d4565b9050611720565b505b600073ffffffffffffffffffffffffffffffffffffffff168473ffffffffffffffffffffffffffffffffffffffff16141561193c5760005b835181101561193a576000848281518110611862577f4e487b7100000000000000000000000000000000000000000000000000000000600052603260045260246000fd5b6020026020010151905060008483815181106118a7577f4e487b7100000000000000000000000000000000000000000000000000000000600052603260045260246000fd5b602002602001015190506000600560008481526020019081526020016000205490508181101561190c576040517f08c379a000000000000000000000000000000000000000000000000000000000815260040161190390612e38565b60405180910390fd5b818103600560008581526020019081526020016000208190555050505080611933906131d4565b905061181e565b505b505050505050565b505050505050565b61196b8473ffffffffffffffffffffffffffffffffffffffff16611dba565b15611b14578373ffffffffffffffffffffffffffffffffffffffff1663bc197c8187878686866040518663ffffffff1660e01b81526004016119b1959493929190612be0565b602060405180830381600087803b1580156119cb57600080fd5b505af19250505080156119fc57506040513d601f19601f820116820180604052508101906119f99190612413565b60015b611a8b57611a086132c8565b80611a135750611a50565b806040517f08c379a0000000000000000000000000000000000000000000000000000000008152600401611a479190612d16565b60405180910390fd5b6040517f08c379a0000000000000000000000000000000000000000000000000000000008152600401611a8290612d38565b60405180910390fd5b63bc197c8160e01b7bffffffffffffffffffffffffffffffffffffffffffffffffffffffff1916817bffffffffffffffffffffffffffffffffffffffffffffffffffffffff191614611b12576040517f08c379a0000000000000000000000000000000000000000000000000000000008152600401611b0990612d58565b60405180910390fd5b505b505050505050565b60606000600167ffffffffffffffff811115611b61577f4e487b7100000000000000000000000000000000000000000000000000000000600052604160045260246000fd5b604051908082528060200260200182016040528015611b8f5781602001602082028036833780820191505090505b5090508281600081518110611bcd577f4e487b7100000000000000000000000000000000000000000000000000000000600052603260045260246000fd5b60200260200101818152505080915050919050565b611c018473ffffffffffffffffffffffffffffffffffffffff16611dba565b15611daa578373ffffffffffffffffffffffffffffffffffffffff1663f23a6e6187878686866040518663ffffffff1660e01b8152600401611c47959493929190612c48565b602060405180830381600087803b158015611c6157600080fd5b505af1925050508015611c9257506040513d601f19601f82011682018060405250810190611c8f9190612413565b60015b611d2157611c9e6132c8565b80611ca95750611ce6565b806040517f08c379a0000000000000000000000000000000000000000000000000000000008152600401611cdd9190612d16565b60405180910390fd5b6040517f08c379a0000000000000000000000000000000000000000000000000000000008152600401611d1890612d38565b60405180910390fd5b63f23a6e6160e01b7bffffffffffffffffffffffffffffffffffffffffffffffffffffffff1916817bffffffffffffffffffffffffffffffffffffffffffffffffffffffff191614611da8576040517f08c379a0000000000000000000000000000000000000000000000000000000008152600401611d9f90612d58565b60405180910390fd5b505b505050505050565b505050505050565b6000808273ffffffffffffffffffffffffffffffffffffffff16803b806020016040519081016040528181526000908060200190933c51119050919050565b828054611e05906131a2565b90600052602060002090601f016020900481019282611e275760008555611e6e565b82601f10611e4057805160ff1916838001178555611e6e565b82800160010185558215611e6e579182015b82811115611e6d578251825591602001919060010190611e52565b5b509050611e7b9190611e7f565b5090565b5b80821115611e98576000816000905550600101611e80565b5090565b6000611eaf611eaa84612f4d565b612f1c565b90508083825260208201905082856020860282011115611ece57600080fd5b60005b85811015611efe5781611ee48882611ff0565b845260208401935060208301925050600181019050611ed1565b5050509392505050565b6000611f1b611f1684612f79565b612f1c565b90508083825260208201905082856020860282011115611f3a57600080fd5b60005b85811015611f6a5781611f5088826120ec565b845260208401935060208301925050600181019050611f3d565b5050509392505050565b6000611f87611f8284612fa5565b612f1c565b905082815260208101848484011115611f9f57600080fd5b611faa848285613160565b509392505050565b6000611fc5611fc084612fd5565b612f1c565b905082815260208101848484011115611fdd57600080fd5b611fe8848285613160565b509392505050565b600081359050611fff8161337e565b92915050565b600082601f83011261201657600080fd5b8135612026848260208601611e9c565b91505092915050565b600082601f83011261204057600080fd5b8135612050848260208601611f08565b91505092915050565b60008135905061206881613395565b92915050565b60008135905061207d816133ac565b92915050565b600081519050612092816133ac565b92915050565b600082601f8301126120a957600080fd5b81356120b9848260208601611f74565b91505092915050565b600082601f8301126120d357600080fd5b81356120e3848260208601611fb2565b91505092915050565b6000813590506120fb816133c3565b92915050565b6000806040838503121561211457600080fd5b600061212285828601611ff0565b925050602061213385828601611ff0565b9150509250929050565b600080600080600060a0868803121561215557600080fd5b600061216388828901611ff0565b955050602061217488828901611ff0565b945050604086013567ffffffffffffffff81111561219157600080fd5b61219d8882890161202f565b935050606086013567ffffffffffffffff8111156121ba57600080fd5b6121c68882890161202f565b925050608086013567ffffffffffffffff8111156121e357600080fd5b6121ef88828901612098565b9150509295509295909350565b600080600080600060a0868803121561221457600080fd5b600061222288828901611ff0565b955050602061223388828901611ff0565b9450506040612244888289016120ec565b9350506060612255888289016120ec565b925050608086013567ffffffffffffffff81111561227257600080fd5b61227e88828901612098565b9150509295509295909350565b6000806040838503121561229e57600080fd5b60006122ac85828601611ff0565b92505060206122bd85828601612059565b9150509250929050565b600080604083850312156122da57600080fd5b60006122e885828601611ff0565b92505060206122f9858286016120ec565b9150509250929050565b6000806000806080858703121561231957600080fd5b600061232787828801611ff0565b9450506020612338878288016120ec565b9350506040612349878288016120ec565b925050606085013567ffffffffffffffff81111561236657600080fd5b61237287828801612098565b91505092959194509250565b6000806040838503121561239157600080fd5b600083013567ffffffffffffffff8111156123ab57600080fd5b6123b785828601612005565b925050602083013567ffffffffffffffff8111156123d457600080fd5b6123e08582860161202f565b9150509250929050565b6000602082840312156123fc57600080fd5b600061240a8482850161206e565b91505092915050565b60006020828403121561242557600080fd5b600061243384828501612083565b91505092915050565b60006020828403121561244e57600080fd5b600061245c848285016120ec565b91505092915050565b6000806000806080858703121561247b57600080fd5b6000612489878288016120ec565b945050602085013567ffffffffffffffff8111156124a657600080fd5b6124b2878288016120c2565b93505060406124c387828801611ff0565b92505060606124d4878288016120ec565b91505092959194509250565b60006124ec8383612b9e565b60208301905092915050565b612501816130ec565b82525050565b60006125128261302a565b61251c8185613058565b935061252783613005565b8060005b8381101561255857815161253f88826124e0565b975061254a8361304b565b92505060018101905061252b565b5085935050505092915050565b61256e816130fe565b82525050565b600061257f82613035565b6125898185613069565b935061259981856020860161316f565b6125a2816132aa565b840191505092915050565b60006125b882613040565b6125c2818561307a565b93506125d281856020860161316f565b6125db816132aa565b840191505092915050565b60006125f182613040565b6125fb818561308b565b935061260b81856020860161316f565b80840191505092915050565b60008154612624816131a2565b61262e818661308b565b94506001821660008114612649576001811461265a5761268d565b60ff1983168652818601935061268d565b61266385613015565b60005b8381101561268557815481890152600182019150602081019050612666565b838801955050505b50505092915050565b60006126a360348361307a565b91507f455243313135353a207472616e7366657220746f206e6f6e204552433131353560008301527f526563656976657220696d706c656d656e7465720000000000000000000000006020830152604082019050919050565b600061270960288361307a565b91507f455243313135353a204552433131353552656365697665722072656a6563746560008301527f6420746f6b656e730000000000000000000000000000000000000000000000006020830152604082019050919050565b600061276f602b8361307a565b91507f455243313135353a2062616c616e636520717565727920666f7220746865207a60008301527f65726f20616464726573730000000000000000000000000000000000000000006020830152604082019050919050565b60006127d560298361307a565b91507f455243313135353a2063616c6c6572206973206e6f74206f776e6572206e6f7260008301527f20617070726f76656400000000000000000000000000000000000000000000006020830152604082019050919050565b600061283b60158361307a565b91507f746f6b656e496420697320647570706c696361746500000000000000000000006000830152602082019050919050565b600061287b60258361307a565b91507f455243313135353a207472616e7366657220746f20746865207a65726f20616460008301527f64726573730000000000000000000000000000000000000000000000000000006020830152604082019050919050565b60006128e160328361307a565b91507f455243313135353a207472616e736665722063616c6c6572206973206e6f742060008301527f6f776e6572206e6f7220617070726f76656400000000000000000000000000006020830152604082019050919050565b6000612947602a8361307a565b91507f455243313135353a20696e73756666696369656e742062616c616e636520666f60008301527f72207472616e73666572000000000000000000000000000000000000000000006020830152604082019050919050565b60006129ad60288361307a565b91507f455243313135353a206275726e20616d6f756e74206578636565647320746f7460008301527f616c537570706c790000000000000000000000000000000000000000000000006020830152604082019050919050565b6000612a1360298361307a565b91507f455243313135353a2073657474696e6720617070726f76616c2073746174757360008301527f20666f722073656c6600000000000000000000000000000000000000000000006020830152604082019050919050565b6000612a7960298361307a565b91507f455243313135353a206163636f756e747320616e6420696473206c656e67746860008301527f206d69736d6174636800000000000000000000000000000000000000000000006020830152604082019050919050565b6000612adf60288361307a565b91507f455243313135353a2069647320616e6420616d6f756e7473206c656e6774682060008301527f6d69736d617463680000000000000000000000000000000000000000000000006020830152604082019050919050565b6000612b4560218361307a565b91507f455243313135353a206d696e7420746f20746865207a65726f2061646472657360008301527f73000000000000000000000000000000000000000000000000000000000000006020830152604082019050919050565b612ba781613156565b82525050565b612bb681613156565b82525050565b6000612bc88285612617565b9150612bd482846125e6565b91508190509392505050565b600060a082019050612bf560008301886124f8565b612c0260208301876124f8565b8181036040830152612c148186612507565b90508181036060830152612c288185612507565b90508181036080830152612c3c8184612574565b90509695505050505050565b600060a082019050612c5d60008301886124f8565b612c6a60208301876124f8565b612c776040830186612bad565b612c846060830185612bad565b8181036080830152612c968184612574565b90509695505050505050565b60006020820190508181036000830152612cbc8184612507565b905092915050565b60006040820190508181036000830152612cde8185612507565b90508181036020830152612cf28184612507565b90509392505050565b6000602082019050612d106000830184612565565b92915050565b60006020820190508181036000830152612d3081846125ad565b905092915050565b60006020820190508181036000830152612d5181612696565b9050919050565b60006020820190508181036000830152612d71816126fc565b9050919050565b60006020820190508181036000830152612d9181612762565b9050919050565b60006020820190508181036000830152612db1816127c8565b9050919050565b60006020820190508181036000830152612dd18161282e565b9050919050565b60006020820190508181036000830152612df18161286e565b9050919050565b60006020820190508181036000830152612e11816128d4565b9050919050565b60006020820190508181036000830152612e318161293a565b9050919050565b60006020820190508181036000830152612e51816129a0565b9050919050565b60006020820190508181036000830152612e7181612a06565b9050919050565b60006020820190508181036000830152612e9181612a6c565b9050919050565b60006020820190508181036000830152612eb181612ad2565b9050919050565b60006020820190508181036000830152612ed181612b38565b9050919050565b6000602082019050612eed6000830184612bad565b92915050565b6000604082019050612f086000830185612bad565b612f156020830184612bad565b9392505050565b6000604051905081810181811067ffffffffffffffff82111715612f4357612f4261327b565b5b8060405250919050565b600067ffffffffffffffff821115612f6857612f6761327b565b5b602082029050602081019050919050565b600067ffffffffffffffff821115612f9457612f9361327b565b5b602082029050602081019050919050565b600067ffffffffffffffff821115612fc057612fbf61327b565b5b601f19601f8301169050602081019050919050565b600067ffffffffffffffff821115612ff057612fef61327b565b5b601f19601f8301169050602081019050919050565b6000819050602082019050919050565b60008190508160005260206000209050919050565b600081519050919050565b600081519050919050565b600081519050919050565b6000602082019050919050565b600082825260208201905092915050565b600082825260208201905092915050565b600082825260208201905092915050565b600081905092915050565b60006130a182613156565b91506130ac83613156565b9250827fffffffffffffffffffffffffffffffffffffffffffffffffffffffffffffffff038211156130e1576130e061321d565b5b828201905092915050565b60006130f782613136565b9050919050565b60008115159050919050565b60007fffffffff0000000000000000000000000000000000000000000000000000000082169050919050565b600073ffffffffffffffffffffffffffffffffffffffff82169050919050565b6000819050919050565b82818337600083830152505050565b60005b8381101561318d578082015181840152602081019050613172565b8381111561319c576000848401525b50505050565b600060028204905060018216806131ba57607f821691505b602082108114156131ce576131cd61324c565b5b50919050565b60006131df82613156565b91507fffffffffffffffffffffffffffffffffffffffffffffffffffffffffffffffff8214156132125761321161321d565b5b600182019050919050565b7f4e487b7100000000000000000000000000000000000000000000000000000000600052601160045260246000fd5b7f4e487b7100000000000000000000000000000000000000000000000000000000600052602260045260246000fd5b7f4e487b7100000000000000000000000000000000000000000000000000000000600052604160045260246000fd5b6000601f19601f8301169050919050565b60008160e01c9050919050565b600060443d10156132d85761337b565b60046000803e6132e96000516132bb565b6308c379a081146132fa575061337b565b60405160043d036004823e80513d602482011167ffffffffffffffff821117156133265750505061337b565b808201805167ffffffffffffffff81111561334557505050505061337b565b8060208301013d85018111156133605750505050505061337b565b613369826132aa565b60208401016040528296505050505050505b90565b613387816130ec565b811461339257600080fd5b50565b61339e816130fe565b81146133a957600080fd5b50565b6133b58161310a565b81146133c057600080fd5b50565b6133cc81613156565b81146133d757600080fd5b5056fea2646970667358221220c28c384ebf224d0aa2d773a661391e438fd90360bd3f9646efff3a9885e51d5b64736f6c63430008000033",
  "linkReferences": {},
  "deployedLinkReferences": {}
}