{
  "_format": "hh-sol-artifact-1",
  "contractName": "DappToken",
  "sourceName": "contracts/DappToken.sol",
  "abi": [
    {
      "constant": true,
      "inputs": [],
      "name": "name",
      "outputs": [
        {
          "name": "",
          "type": "string"
        }
      ],
      "payable": false,
      "stateMutability": "view",
      "type": "function"
    },
    {
      "constant": false,
      "inputs": [
        {
          "name": "spender",
          "type": "address"
        },
        {
          "name": "amount",
          "type": "uint256"
        }
      ],
      "name": "approve",
      "outputs": [
        {
          "name": "",
          "type": "bool"
        }
      ],
      "payable": false,
      "stateMutability": "nonpayable",
      "type": "function"
    },
    {
      "constant": true,
      "inputs": [],
      "name": "totalSupply",
      "outputs": [
        {
          "name": "",
          "type": "uint256"
        }
      ],
      "payable": false,
      "stateMutability": "view",
      "type": "function"
    },
    {
      "constant": false,
      "inputs": [
        {
          "name": "sender",
          "type": "address"
        },
        {
          "name": "recipient",
          "type": "address"
        },
        {
          "name": "amount",
          "type": "uint256"
        }
      ],
      "name": "transferFrom",
      "outputs": [
        {
          "name": "",
          "type": "bool"
        }
      ],
      "payable": false,
      "stateMutability": "nonpayable",
      "type": "function"
    },
    {
      "constant": true,
      "inputs": [],
      "name": "decimals",
      "outputs": [
        {
          "name": "",
          "type": "uint8"
        }
      ],
      "payable": false,
      "stateMutability": "view",
      "type": "function"
    },
    {
      "constant": false,
      "inputs": [
        {
          "name": "spender",
          "type": "address"
        },
        {
          "name": "addedValue",
          "type": "uint256"
        }
      ],
      "name": "increaseAllowance",
      "outputs": [
        {
          "name": "",
          "type": "bool"
        }
      ],
      "payable": false,
      "stateMutability": "nonpayable",
      "type": "function"
    },
    {
      "constant": false,
      "inputs": [
        {
          "name": "account",
          "type": "address"
        },
        {
          "name": "amount",
          "type": "uint256"
        }
      ],
      "name": "mint",
      "outputs": [
        {
          "name": "",
          "type": "bool"
        }
      ],
      "payable": false,
      "stateMutability": "nonpayable",
      "type": "function"
    },
    {
      "constant": true,
      "inputs": [
        {
          "name": "account",
          "type": "address"
        }
      ],
      "name": "balanceOf",
      "outputs": [
        {
          "name": "",
          "type": "uint256"
        }
      ],
      "payable": false,
      "stateMutability": "view",
      "type": "function"
    },
    {
      "constant": true,
      "inputs": [],
      "name": "symbol",
      "outputs": [
        {
          "name": "",
          "type": "string"
        }
      ],
      "payable": false,
      "stateMutability": "view",
      "type": "function"
    },
    {
      "constant": false,
      "inputs": [
        {
          "name": "account",
          "type": "address"
        }
      ],
      "name": "addMinter",
      "outputs": [],
      "payable": false,
      "stateMutability": "nonpayable",
      "type": "function"
    },
    {
      "constant": false,
      "inputs": [],
      "name": "renounceMinter",
      "outputs": [],
      "payable": false,
      "stateMutability": "nonpayable",
      "type": "function"
    },
    {
      "constant": false,
      "inputs": [
        {
          "name": "spender",
          "type": "address"
        },
        {
          "name": "subtractedValue",
          "type": "uint256"
        }
      ],
      "name": "decreaseAllowance",
      "outputs": [
        {
          "name": "",
          "type": "bool"
        }
      ],
      "payable": false,
      "stateMutability": "nonpayable",
      "type": "function"
    },
    {
      "constant": false,
      "inputs": [
        {
          "name": "recipient",
          "type": "address"
        },
        {
          "name": "amount",
          "type": "uint256"
        }
      ],
      "name": "transfer",
      "outputs": [
        {
          "name": "",
          "type": "bool"
        }
      ],
      "payable": false,
      "stateMutability": "nonpayable",
      "type": "function"
    },
    {
      "constant": true,
      "inputs": [
        {
          "name": "account",
          "type": "address"
        }
      ],
      "name": "isMinter",
      "outputs": [
        {
          "name": "",
          "type": "bool"
        }
      ],
      "payable": false,
      "stateMutability": "view",
      "type": "function"
    },
    {
      "constant": true,
      "inputs": [
        {
          "name": "owner",
          "type": "address"
        },
        {
          "name": "spender",
          "type": "address"
        }
      ],
      "name": "allowance",
      "outputs": [
        {
          "name": "",
          "type": "uint256"
        }
      ],
      "payable": false,
      "stateMutability": "view",
      "type": "function"
    },
    {
      "inputs": [
        {
          "name": "_name",
          "type": "string"
        },
        {
          "name": "_symbol",
          "type": "string"
        },
        {
          "name": "_decimals",
          "type": "uint8"
        }
      ],
      "payable": false,
      "stateMutability": "nonpayable",
      "type": "constructor"
    },
    {
      "anonymous": false,
      "inputs": [
        {
          "indexed": true,
          "name": "account",
          "type": "address"
        }
      ],
      "name": "MinterAdded",
      "type": "event"
    },
    {
      "anonymous": false,
      "inputs": [
        {
          "indexed": true,
          "name": "account",
          "type": "address"
        }
      ],
      "name": "MinterRemoved",
      "type": "event"
    },
    {
      "anonymous": false,
      "inputs": [
        {
          "indexed": true,
          "name": "from",
          "type": "address"
        },
        {
          "indexed": true,
          "name": "to",
          "type": "address"
        },
        {
          "indexed": false,
          "name": "value",
          "type": "uint256"
        }
      ],
      "name": "Transfer",
      "type": "event"
    },
    {
      "anonymous": false,
      "inputs": [
        {
          "indexed": true,
          "name": "owner",
          "type": "address"
        },
        {
          "indexed": true,
          "name": "spender",
          "type": "address"
        },
        {
          "indexed": false,
          "name": "value",
          "type": "uint256"
        }
      ],
      "name": "Approval",
      "type": "event"
    }
  ],
  "bytecode": "0x60806040523480156200001157600080fd5b5060405162001f9c38038062001f9c833981018060405260608110156200003757600080fd5b8101908080516401000000008111156200005057600080fd5b828101905060208101848111156200006757600080fd5b81518560018202830111640100000000821117156200008557600080fd5b50509291906020018051640100000000811115620000a257600080fd5b82810190506020810184811115620000b957600080fd5b8151856001820283011164010000000082111715620000d757600080fd5b505092919060200180519060200190929190505050828282826000908051906020019062000107929190620003ff565b50816001908051906020019062000120929190620003ff565b5080600260006101000a81548160ff021916908360ff160217905550505050620001716200015c6200017a640100000000026401000000009004565b62000182640100000000026401000000009004565b505050620004ae565b600033905090565b620001a6816006620001ec64010000000002620018d3179091906401000000009004565b8073ffffffffffffffffffffffffffffffffffffffff167f6ae172837ea30b801fbfcdd4108aa1d5bf8ff775444fd70256b44e6bf3dfc3f660405160405180910390a250565b620002078282620002db640100000000026401000000009004565b1515156200027d576040517f08c379a000000000000000000000000000000000000000000000000000000000815260040180806020018281038252601f8152602001807f526f6c65733a206163636f756e7420616c72656164792068617320726f6c650081525060200191505060405180910390fd5b60018260000160008373ffffffffffffffffffffffffffffffffffffffff1673ffffffffffffffffffffffffffffffffffffffff16815260200190815260200160002060006101000a81548160ff0219169083151502179055505050565b60008073ffffffffffffffffffffffffffffffffffffffff168273ffffffffffffffffffffffffffffffffffffffff1614151515620003a8576040517f08c379a00000000000000000000000000000000000000000000000000000000081526004018080602001828103825260228152602001807f526f6c65733a206163636f756e7420697320746865207a65726f20616464726581526020017f737300000000000000000000000000000000000000000000000000000000000081525060400191505060405180910390fd5b8260000160008373ffffffffffffffffffffffffffffffffffffffff1673ffffffffffffffffffffffffffffffffffffffff16815260200190815260200160002060009054906101000a900460ff16905092915050565b828054600181600116156101000203166002900490600052602060002090601f016020900481019282601f106200044257805160ff191683800117855562000473565b8280016001018555821562000473579182015b828111156200047257825182559160200191906001019062000455565b5b50905062000482919062000486565b5090565b620004ab91905b80821115620004a75760008160009055506001016200048d565b5090565b90565b611ade80620004be6000396000f3fe6080604052600436106100db576000357c0100000000000000000000000000000000000000000000000000000000900463ffffffff16806306fdde03146100e0578063095ea7b31461017057806318160ddd146101e357806323b872dd1461020e578063313ce567146102a157806339509351146102d257806340c10f191461034557806370a08231146103b857806395d89b411461041d578063983b2d56146104ad57806398650275146104fe578063a457c2d714610515578063a9059cbb14610588578063aa271e1a146105fb578063dd62ed3e14610664575b600080fd5b3480156100ec57600080fd5b506100f56106e9565b6040518080602001828103825283818151815260200191508051906020019080838360005b8381101561013557808201518184015260208101905061011a565b50505050905090810190601f1680156101625780820380516001836020036101000a031916815260200191505b509250505060405180910390f35b34801561017c57600080fd5b506101c96004803603604081101561019357600080fd5b81019080803573ffffffffffffffffffffffffffffffffffffffff1690602001909291908035906020019092919050505061078b565b604051808215151515815260200191505060405180910390f35b3480156101ef57600080fd5b506101f86107a9565b6040518082815260200191505060405180910390f35b34801561021a57600080fd5b506102876004803603606081101561023157600080fd5b81019080803573ffffffffffffffffffffffffffffffffffffffff169060200190929190803573ffffffffffffffffffffffffffffffffffffffff169060200190929190803590602001909291905050506107b3565b604051808215151515815260200191505060405180910390f35b3480156102ad57600080fd5b506102b66108d0565b604051808260ff1660ff16815260200191505060405180910390f35b3480156102de57600080fd5b5061032b600480360360408110156102f557600080fd5b81019080803573ffffffffffffffffffffffffffffffffffffffff169060200190929190803590602001909291905050506108e7565b604051808215151515815260200191505060405180910390f35b34801561035157600080fd5b5061039e6004803603604081101561036857600080fd5b81019080803573ffffffffffffffffffffffffffffffffffffffff1690602001909291908035906020019092919050505061099a565b604051808215151515815260200191505060405180910390f35b3480156103c457600080fd5b50610407600480360360208110156103db57600080fd5b81019080803573ffffffffffffffffffffffffffffffffffffffff169060200190929190505050610a5a565b6040518082815260200191505060405180910390f35b34801561042957600080fd5b50610432610aa3565b6040518080602001828103825283818151815260200191508051906020019080838360005b83811015610472578082015181840152602081019050610457565b50505050905090810190601f16801561049f5780820380516001836020036101000a031916815260200191505b509250505060405180910390f35b3480156104b957600080fd5b506104fc600480360360208110156104d057600080fd5b81019080803573ffffffffffffffffffffffffffffffffffffffff169060200190929190505050610b45565b005b34801561050a57600080fd5b50610513610bfb565b005b34801561052157600080fd5b5061056e6004803603604081101561053857600080fd5b81019080803573ffffffffffffffffffffffffffffffffffffffff16906020019092919080359060200190929190505050610c0d565b604051808215151515815260200191505060405180910390f35b34801561059457600080fd5b506105e1600480360360408110156105ab57600080fd5b81019080803573ffffffffffffffffffffffffffffffffffffffff16906020019092919080359060200190929190505050610d1e565b604051808215151515815260200191505060405180910390f35b34801561060757600080fd5b5061064a6004803603602081101561061e57600080fd5b81019080803573ffffffffffffffffffffffffffffffffffffffff169060200190929190505050610d3c565b604051808215151515815260200191505060405180910390f35b34801561067057600080fd5b506106d36004803603604081101561068757600080fd5b81019080803573ffffffffffffffffffffffffffffffffffffffff169060200190929190803573ffffffffffffffffffffffffffffffffffffffff169060200190929190505050610d59565b6040518082815260200191505060405180910390f35b606060008054600181600116156101000203166002900480601f0160208091040260200160405190810160405280929190818152602001828054600181600116156101000203166002900480156107815780601f1061075657610100808354040283529160200191610781565b820191906000526020600020905b81548152906001019060200180831161076457829003601f168201915b5050505050905090565b600061079f610798610de0565b8484610de8565b6001905092915050565b6000600554905090565b60006107c0848484611069565b6108c5846107cc610de0565b6108c085606060405190810160405280602881526020017f45524332303a207472616e7366657220616d6f756e742065786365656473206181526020017f6c6c6f77616e6365000000000000000000000000000000000000000000000000815250600460008b73ffffffffffffffffffffffffffffffffffffffff1673ffffffffffffffffffffffffffffffffffffffff1681526020019081526020016000206000610876610de0565b73ffffffffffffffffffffffffffffffffffffffff1673ffffffffffffffffffffffffffffffffffffffff168152602001908152602001600020546113f19092919063ffffffff16565b610de8565b600190509392505050565b6000600260009054906101000a900460ff16905090565b60006109906108f4610de0565b8461098b8560046000610905610de0565b73ffffffffffffffffffffffffffffffffffffffff1673ffffffffffffffffffffffffffffffffffffffff16815260200190815260200160002060008973ffffffffffffffffffffffffffffffffffffffff1673ffffffffffffffffffffffffffffffffffffffff168152602001908152602001600020546114b390919063ffffffff16565b610de8565b6001905092915050565b60006109ac6109a7610de0565b610d3c565b1515610a46576040517f08c379a00000000000000000000000000000000000000000000000000000000081526004018080602001828103825260308152602001807f4d696e746572526f6c653a2063616c6c657220646f6573206e6f74206861766581526020017f20746865204d696e74657220726f6c650000000000000000000000000000000081525060400191505060405180910390fd5b610a50838361153d565b6001905092915050565b6000600360008373ffffffffffffffffffffffffffffffffffffffff1673ffffffffffffffffffffffffffffffffffffffff168152602001908152602001600020549050919050565b606060018054600181600116156101000203166002900480601f016020809104026020016040519081016040528092919081815260200182805460018160011615610100020316600290048015610b3b5780601f10610b1057610100808354040283529160200191610b3b565b820191906000526020600020905b815481529060010190602001808311610b1e57829003601f168201915b5050505050905090565b610b55610b50610de0565b610d3c565b1515610bef576040517f08c379a00000000000000000000000000000000000000000000000000000000081526004018080602001828103825260308152602001807f4d696e746572526f6c653a2063616c6c657220646f6573206e6f74206861766581526020017f20746865204d696e74657220726f6c650000000000000000000000000000000081525060400191505060405180910390fd5b610bf8816116fc565b50565b610c0b610c06610de0565b611756565b565b6000610d14610c1a610de0565b84610d0f85606060405190810160405280602581526020017f45524332303a2064656372656173656420616c6c6f77616e63652062656c6f7781526020017f207a65726f00000000000000000000000000000000000000000000000000000081525060046000610c88610de0565b73ffffffffffffffffffffffffffffffffffffffff1673ffffffffffffffffffffffffffffffffffffffff16815260200190815260200160002060008a73ffffffffffffffffffffffffffffffffffffffff1673ffffffffffffffffffffffffffffffffffffffff168152602001908152602001600020546113f19092919063ffffffff16565b610de8565b6001905092915050565b6000610d32610d2b610de0565b8484611069565b6001905092915050565b6000610d528260066117b090919063ffffffff16565b9050919050565b6000600460008473ffffffffffffffffffffffffffffffffffffffff1673ffffffffffffffffffffffffffffffffffffffff16815260200190815260200160002060008373ffffffffffffffffffffffffffffffffffffffff1673ffffffffffffffffffffffffffffffffffffffff16815260200190815260200160002054905092915050565b600033905090565b600073ffffffffffffffffffffffffffffffffffffffff168373ffffffffffffffffffffffffffffffffffffffff1614151515610eb3576040517f08c379a00000000000000000000000000000000000000000000000000000000081526004018080602001828103825260248152602001807f45524332303a20617070726f76652066726f6d20746865207a65726f2061646481526020017f726573730000000000000000000000000000000000000000000000000000000081525060400191505060405180910390fd5b600073ffffffffffffffffffffffffffffffffffffffff168273ffffffffffffffffffffffffffffffffffffffff1614151515610f7e576040517f08c379a00000000000000000000000000000000000000000000000000000000081526004018080602001828103825260228152602001807f45524332303a20617070726f766520746f20746865207a65726f20616464726581526020017f737300000000000000000000000000000000000000000000000000000000000081525060400191505060405180910390fd5b80600460008573ffffffffffffffffffffffffffffffffffffffff1673ffffffffffffffffffffffffffffffffffffffff16815260200190815260200160002060008473ffffffffffffffffffffffffffffffffffffffff1673ffffffffffffffffffffffffffffffffffffffff168152602001908152602001600020819055508173ffffffffffffffffffffffffffffffffffffffff168373ffffffffffffffffffffffffffffffffffffffff167f8c5be1e5ebec7d5bd14f71427d1e84f3dd0314c0f7b2291e5b200ac8c7c3b925836040518082815260200191505060405180910390a3505050565b600073ffffffffffffffffffffffffffffffffffffffff168373ffffffffffffffffffffffffffffffffffffffff1614151515611134576040517f08c379a00000000000000000000000000000000000000000000000000000000081526004018080602001828103825260258152602001807f45524332303a207472616e736665722066726f6d20746865207a65726f20616481526020017f647265737300000000000000000000000000000000000000000000000000000081525060400191505060405180910390fd5b600073ffffffffffffffffffffffffffffffffffffffff168273ffffffffffffffffffffffffffffffffffffffff16141515156111ff576040517f08c379a00000000000000000000000000000000000000000000000000000000081526004018080602001828103825260238152602001807f45524332303a207472616e7366657220746f20746865207a65726f206164647281526020017f657373000000000000000000000000000000000000000000000000000000000081525060400191505060405180910390fd5b6112af81606060405190810160405280602681526020017f45524332303a207472616e7366657220616d6f756e742065786365656473206281526020017f616c616e63650000000000000000000000000000000000000000000000000000815250600360008773ffffffffffffffffffffffffffffffffffffffff1673ffffffffffffffffffffffffffffffffffffffff168152602001908152602001600020546113f19092919063ffffffff16565b600360008573ffffffffffffffffffffffffffffffffffffffff1673ffffffffffffffffffffffffffffffffffffffff1681526020019081526020016000208190555061134481600360008573ffffffffffffffffffffffffffffffffffffffff1673ffffffffffffffffffffffffffffffffffffffff168152602001908152602001600020546114b390919063ffffffff16565b600360008473ffffffffffffffffffffffffffffffffffffffff1673ffffffffffffffffffffffffffffffffffffffff168152602001908152602001600020819055508173ffffffffffffffffffffffffffffffffffffffff168373ffffffffffffffffffffffffffffffffffffffff167fddf252ad1be2c89b69c2b068fc378daa952ba7f163c4a11628f55a4df523b3ef836040518082815260200191505060405180910390a3505050565b600083831115829015156114a0576040517f08c379a00000000000000000000000000000000000000000000000000000000081526004018080602001828103825283818151815260200191508051906020019080838360005b8381101561146557808201518184015260208101905061144a565b50505050905090810190601f1680156114925780820380516001836020036101000a031916815260200191505b509250505060405180910390fd5b5060008385039050809150509392505050565b6000808284019050838110151515611533576040517f08c379a000000000000000000000000000000000000000000000000000000000815260040180806020018281038252601b8152602001807f536166654d6174683a206164646974696f6e206f766572666c6f77000000000081525060200191505060405180910390fd5b8091505092915050565b600073ffffffffffffffffffffffffffffffffffffffff168273ffffffffffffffffffffffffffffffffffffffff16141515156115e2576040517f08c379a000000000000000000000000000000000000000000000000000000000815260040180806020018281038252601f8152602001807f45524332303a206d696e7420746f20746865207a65726f20616464726573730081525060200191505060405180910390fd5b6115f7816005546114b390919063ffffffff16565b60058190555061164f81600360008573ffffffffffffffffffffffffffffffffffffffff1673ffffffffffffffffffffffffffffffffffffffff168152602001908152602001600020546114b390919063ffffffff16565b600360008473ffffffffffffffffffffffffffffffffffffffff1673ffffffffffffffffffffffffffffffffffffffff168152602001908152602001600020819055508173ffffffffffffffffffffffffffffffffffffffff16600073ffffffffffffffffffffffffffffffffffffffff167fddf252ad1be2c89b69c2b068fc378daa952ba7f163c4a11628f55a4df523b3ef836040518082815260200191505060405180910390a35050565b6117108160066118d390919063ffffffff16565b8073ffffffffffffffffffffffffffffffffffffffff167f6ae172837ea30b801fbfcdd4108aa1d5bf8ff775444fd70256b44e6bf3dfc3f660405160405180910390a250565b61176a8160066119b090919063ffffffff16565b8073ffffffffffffffffffffffffffffffffffffffff167fe94479a9f7e1952cc78f2d6baab678adc1b772d936c6583def489e524cb6669260405160405180910390a250565b60008073ffffffffffffffffffffffffffffffffffffffff168273ffffffffffffffffffffffffffffffffffffffff161415151561187c576040517f08c379a00000000000000000000000000000000000000000000000000000000081526004018080602001828103825260228152602001807f526f6c65733a206163636f756e7420697320746865207a65726f20616464726581526020017f737300000000000000000000000000000000000000000000000000000000000081525060400191505060405180910390fd5b8260000160008373ffffffffffffffffffffffffffffffffffffffff1673ffffffffffffffffffffffffffffffffffffffff16815260200190815260200160002060009054906101000a900460ff16905092915050565b6118dd82826117b0565b151515611952576040517f08c379a000000000000000000000000000000000000000000000000000000000815260040180806020018281038252601f8152602001807f526f6c65733a206163636f756e7420616c72656164792068617320726f6c650081525060200191505060405180910390fd5b60018260000160008373ffffffffffffffffffffffffffffffffffffffff1673ffffffffffffffffffffffffffffffffffffffff16815260200190815260200160002060006101000a81548160ff0219169083151502179055505050565b6119ba82826117b0565b1515611a54576040517f08c379a00000000000000000000000000000000000000000000000000000000081526004018080602001828103825260218152602001807f526f6c65733a206163636f756e7420646f6573206e6f74206861766520726f6c81526020017f650000000000000000000000000000000000000000000000000000000000000081525060400191505060405180910390fd5b60008260000160008373ffffffffffffffffffffffffffffffffffffffff1673ffffffffffffffffffffffffffffffffffffffff16815260200190815260200160002060006101000a81548160ff021916908315150217905550505056fea165627a7a723058207decbd8a36e9bd99715372c203c451cf9522f793629d7ee749317551d35cd0760029",
  "linkReferences": {},
  "deployedLinkReferences": {}
}